:020000040800F2
:10000000002800200D0A00088D0900089309000847
:10001000990900089F090008A509000800000000D0
:10002000000000000000000000000000AB09000814
:10003000B709000800000000C3090008CF09000844
:10004000550A0008550A0008550A0008550A000814
:10005000550A0008550A0008550A0008550A000804
:10006000550A0008550A0008550A0008DD0900086D
:10007000550A0008550A0008550A0008550A0008E4
:10008000550A0008550A0008550A0008550A0008D4
:10009000550A0008550A0008550A0008550A0008C4
:1000A000550A0008550A0008550A0008550A0008B4
:1000B000550A0008550A000800000000550A00080B
:1000C000550A00080000000000000000550A000862
:1000D00000000000550A0008550A00080000000052
:1000E000F1090008550A0008550A00080000000040
:1000F0000000000000000000000000000000000000
:0C01000000000000000000005FF808F1A3
:10010C0010B5054C237833B9044B13B10448AFF345
:10011C0000800123237010BD0C00002000000000A3
:10012C008831000808B5034B1BB103490348AFF3F2
:10013C00008008BD0000000010000020883100087D
:10014C0080B400AF654B5B889BB2B3F52F7F05D2B3
:10015C00634B64221A70624B01225A705F4B5B88AE
:10016C009BB2B3F5AF6F0BD25C4B5B889BB2B3F514
:10017C002F7F05D95A4B41221A70594B01225A70C4
:10018C00564B5B889BB2B3F5E16F0BD2534B5B883C
:10019C009BB2B3F5AF6F05D9514B1E221A70504B61
:1001AC0001225A704D4B5B889BB240F698029342E9
:1001BC0005D94B4B14221A70494B02225A70474BEB
:1001CC005B889BB2B3F5E16F0CD9444B5B889BB257
:1001DC0040F69702934205D8414B00221A70404BCF
:1001EC0000225A703D4B9B889BB2B3F52F7F05D2F2
:1001FC003B4B4B229A703A4B0122DA70374B9B885F
:10020C009BB2B3F5AF6F0BD2344B9B889BB2B3F55B
:10021C002F7F05D9324B32229A70314B0122DA7082
:10022C002E4B9B889BB2B3F5E16F0BD22B4B9B886B
:10023C009BB2B3F5AF6F05D9294B14229A70284B9A
:10024C000122DA70254B9B889BB240F698029342B0
:10025C000CD9224B9B889BB240F61B42934205D88B
:10026C001F4B14229A701E4B0222DA701B4B9B8878
:10027C009BB240F61C4293420CD9184B9B889BB204
:10028C0040F6D762934205D8154B41229A70144B15
:10029C000222DA70114B9B889BB240F6D8629342D3
:1002AC0005D90F4B64229A700D4B0222DA700B4B5E
:1002BC009B889BB2B3F5E16F0CD9084B9B889BB222
:1002CC0040F69702934205D8054B00229A70044BD6
:1002DC000022DA7000BFBD4680BC704728000020A9
:1002EC003000002080B500AF00F0B0FB00F02CF81F
:1002FC0000F0A8F900F088F900F076F800F0DEF8CC
:10030C0000F058F900F008F904220A490A4800F0F4
:10031C00FBFC0A4802F000FBFFF712FF4FF0FF3323
:10032C0004220749074802F092FD642000F0F0FB1C
:10033C00F2E700BF28000020D00000208800002039
:10034C00300000200001002080B594B000AF07F110
:10035C00280328220021184602F008FF07F1140395
:10036C0000221A605A609A60DA601A613B1D002202
:10037C001A605A609A60DA600223BB620123BB6385
:10038C001023FB6300237B6407F12803184601F05C
:10039C00A3FD0346002B01D000F0AAF90F237B61CB
:1003AC000023BB610023FB6100233B6200237B62C3
:1003BC0007F114030021184602F00EF80346002B37
:1003CC0001D000F095F902237B600023FB603B1DFC
:1003DC00184602F09BF90346002B01D000F088F977
:1003EC0000BF5037BD4680BD80B584B000AF3B1D0B
:1003FC0000221A605A609A602E4B2F4A1A602D4BBD
:10040C004FF480729A602B4B00221A73294B0022F6
:10041C001A75284B4FF40022DA61264B00225A60E1
:10042C00244B04221A61234800F096FB0346002B50
:10043C0001D000F05DF900237B600123BB60052334
:10044C00FB603B1D19461B4800F058FD0346002B72
:10045C0001D000F04DF901237B600223BB603B1DF2
:10046C001946144800F04AFD0346002B01D000F059
:10047C003FF902237B600323BB603B1D19460D48EB
:10048C0000F03CFD0346002B01D000F031F90323B2
:10049C007B600423BB603B1D1946064800F02EFD13
:1004AC000346002B01D000F023F900BF1037BD46E6
:1004BC0080BD00BFD00000200024014080B500AFFB
:1004CC00124B134A1A60114B124A5A600F4B0022FE
:1004DC009A600E4B0022DA600C4B4FF480421A618A
:1004EC000A4B00225A61094B00229A61074B0022E9
:1004FC00DA61064B00221A62044801F0A9FB03469C
:10050C00002B01D000F0F4F800BF80BD34000020B7
:10051C0000540040801A060080B586B000AF07F189
:10052C00080300221A605A609A60DA603B46002287
:10053C001A605A601D4B1E4A1A601C4B4FF4FA523B
:10054C005A601A4B00229A60184B6422DA60174BDF
:10055C0000221A61154B00229A61144802F08CF9A2
:10056C000346002B01D000F0C3F84FF48053BB605E
:10057C0007F1080319460D4802F012FA0346002B46
:10058C0001D000F0B5F820233B6000237B603B4694
:10059C001946064802F0B6FB0346002B01D000F0CA
:1005AC00A7F800BF1837BD4680BD00BF88000020EB
:1005BC000004004080B500AF114B124A1A60104B7A
:1005CC004FF416525A600E4B00229A600C4B0022CC
:1005DC00DA600B4B00221A61094B0C225A61084B52
:1005EC0000229A61064B0022DA61054802F0E2FB18
:1005FC000346002B01D000F07BF800BF80BD00BF8C
:10060C00000100200038014080B582B000AF0C4BD7
:10061C005B690B4A43F001035361094B5B6903F0BF
:10062C0001037B607B68002200210B2000F037FF68
:10063C000B2000F050FF00BF0837BD4680BD00BF47
:10064C000010024080B586B000AF07F1080300220D
:10065C001A605A609A60DA60224B9B69214A43F017
:10066C00040393611F4B9B6903F004037B607B685D
:10067C001C4B9B691B4A43F008039361194B9B6904
:10068C0003F008033B603B6801224FF400611648FD
:10069C0001F0A4FA4FF40063BB600123FB6001235B
:1006AC003B6102237B6107F1080319460E4801F0F8
:1006BC001BF94FF48053BB600C4BFB6001233B6177
:1006CC0007F108031946084801F00EF90022002131
:1006DC00282000F0E4FE282000F0FDFE00BF1837B3
:1006EC00BD4680BD00100240000C014000001110FE
:1006FC0080B400AF72B600BFFEE7000080B485B0D6
:10070C0000AF154B9B69144A43F001039361124BE4
:10071C009B6903F00103BB60BB680F4BDB690E4A9E
:10072C0043F08053D3610C4BDB6903F080537B6047
:10073C007B680A4B5B68FB60FB6823F0E063FB6043
:10074C00FB6843F00073FB60044AFB68536000BF16
:10075C001437BD4680BC70470010024000000140B9
:10076C0080B588B000AF786007F1100300221A60E2
:10077C005A609A60DA607B681B68284A934249D1B8
:10078C00274B9B69264A43F400739361244B9B6966
:10079C0003F40073FB60FB68214B9B69204A43F018
:1007AC00040393611E4B9B6903F00403BB60BB689D
:1007BC000F233B6103237B6107F110031946194892
:1007CC0001F092F8184B194A1A60174B00225A6024
:1007DC00154B00229A60144B8022DA60124B4FF4B6
:1007EC0080721A61104B4FF480625A610E4B2022BA
:1007FC009A610D4B0022DA610B4800F087FE03462C
:10080C00002B01D0FFF774FF7B68074A1A62064A77
:10081C007B68536200BF2037BD4680BD0024014079
:10082C000010024000080140440100200800024072
:10083C0080B588B000AF786007F1100300221A6011
:10084C005A609A60DA607B681B68154A934223D120
:10085C00144B9B69134A43F008039361114B9B693A
:10086C0003F00803FB60FB68C0233B6112237B6130
:10087C000023BB6107F1100319460B4801F034F853
:10088C00084BDB69074A43F40013D361054BDB6962
:10089C0003F40013BB60BB6800BF2037BD4680BDAE
:1008AC000054004000100240000C014080B485B0A0
:1008BC0000AF78607B681B68094A93420BD1094BE7
:1008CC00DB69084A43F00203D361064BDB6903F092
:1008DC000203FB60FB6800BF1437BD4680BC704749
:1008EC00000400400010024080B588B000AF786072
:1008FC0007F1100300221A605A609A60DA607B6874
:10090C001B681C4A934231D11B4B9B691A4A43F416
:10091C0080439361184B9B6903F48043FB60FB6835
:10092C00154B9B69144A43F004039361124B9B696A
:10093C0003F00403BB60BB684FF400733B610223FC
:10094C007B610323FB6107F1100319460B4800F090
:10095C00CBFF4FF480633B6100237B610023BB61C1
:10096C0007F110031946054800F0BEFF00BF203701
:10097C00BD4680BD00380140001002400008014017
:10098C0080B400AFFEE780B400AFFEE780B400AFE8
:10099C00FEE780B400AFFEE780B400AFFEE780B4A2
:1009AC0000AF00BFBD4680BC704780B400AF00BF35
:1009BC00BD4680BC704780B400AF00BFBD4680BC54
:1009CC00704780B500AF00F087F800BF80BD000015
:1009DC0080B500AF024800F053FE00BF80BD00BFE1
:1009EC004401002080B500AF4FF4805001F00EF9A7
:1009FC0000BF80BD80B400AF00BFBD4680BC704757
:100A0C000C480D490D4A002302E0D458C45004335D
:100A1C00C4188C42F9D30A4A0A4C002301E0136033
:100A2C000432A242FBD3FFF7E5FF02F07BFBFFF79A
:100A3C0059FC7047000000200C000020D031000849
:100A4C000C0000208C010020FEE7000080B500AFF8
:100A5C00084B1B68074A43F010031360032000F097
:100A6C0013FD0F2000F008F8FFF748FE002318468E
:100A7C0080BD00BF0020024080B582B000AF78601E
:100A8C00124B1A68124B1B7819464FF47A73B3FB4E
:100A9C00F1F3B2FBF3F3184600F02BFD0346002BE9
:100AAC0001D001230EE07B680F2B0AD80022796855
:100ABC004FF0FF3000F0F3FC064A7B681360002314
:100ACC0000E0012318460837BD4680BD0000002019
:100ADC00080000200400002080B400AF054B1B78F8
:100AEC001A46054B1B681344034A136000BFBD46EE
:100AFC0080BC7047080000208801002080B400AF43
:100B0C00024B1B681846BD4680BC7047880100200C
:100B1C0080B584B000AF7860FFF7F0FFB8607B68F9
:100B2C00FB60FB68B3F1FF3F05D00A4B1B781A46FC
:100B3C00FB681344FB6000BFFFF7E0FF0246BB6895
:100B4C00D31AFA689A42F7D800BF00BF1037BD46D7
:100B5C0080BD00BF0800002080B586B000AF786073
:100B6C000023FB7500233B610023BB600023FB606B
:100B7C007B68002B01D10123BEE07B689B68002BB6
:100B8C007B689B6A002B09D17B680022DA627B6848
:100B9C00002283F824207868FFF7E2FD786800F0E3
:100BAC00FFFA0346FB757B689B6A03F01003002B6E
:100BBC0040F09980FB7D002B40F095807B689B6A10
:100BCC0023F4885323F0020343F002027B689A62F9
:100BDC007B685A687B68DB691A437B681B7B5B000C
:100BEC001343BA681343BB607B689B68B3F5807F83
:100BFC0003D07B689B68012B02D14FF4807300E01B
:100C0C0000233A6913433B617B681B7D012B19D18F
:100C1C007B681B7B002B09D17B689B69013B5A03CA
:100C2C003B69134343F400633B610BE07B689B6AB5
:100C3C0043F020027B689A627B68DB6A43F0010216
:100C4C007B68DA627B681B685B6823F469417B68AC
:100C5C001B683A690A435A607B681B689A68284B80
:100C6C0013407A681268B9680B4393607B689B6881
:100C7C00B3F5807F03D07B689B68012B04D17B6824
:100C8C001B69013B1B05FB607B681B68DB6A23F45B
:100C9C0070017B681B68FA680A43DA627B681B6820
:100CAC009A68184B1340BA689A420BD17B680022A1
:100CBC00DA627B689B6A23F0030343F001027B68D2
:100CCC009A6218E07B689B6A23F0120343F01002CF
:100CDC007B689A627B68DB6A43F001027B68DA62AC
:100CEC000123FB7507E07B689B6A43F010027B686D
:100CFC009A620123FB75FB7D18461837BD4680BDF3
:100D0C00FDF7E1FFFE0E1FFF80B586B000AFF86067
:100D1C00B9607A600023FB75FB681B68644A9342D8
:100D2C0004D0FB681B68634A934206D1604B5B6836
:100D3C0003F47023002B40F0B380FB6893F824304D
:100D4C00012B01D10223AEE0FB68012283F82420A1
:100D5C00F86800F0CBF90346FB75FB7D002B40F0E7
:100D6C009A80FB689B6A23F4706323F0010343F4BD
:100D7C008072FB689A62FB681B684E4A934205D1ED
:100D8C004B4B5B6803F47023002B15D1FB689B6AFB
:100D9C0023F48012FB689A62FB681B685B6803F49F
:100DAC008063002B26D0FB689B6A23F4405343F4EA
:100DBC008052FB689A621DE0FB689B6A43F48012C8
:100DCC00FB689A62FB681B68394A934204D0FB6843
:100DDC001B68384A93420DD1354B5B6803F4806332
:100DEC00002B07D0FB689B6A23F4405343F48052DA
:100DFC00FB689A62FB689B6A03F48053002B06D055
:100E0C00FB68DB6A23F00602FB68DA6202E0FB682F
:100E1C000022DA62FB68002283F82420FB681B6A3C
:100E2C00254A9A62FB681B6A244ADA62FB681B6AD1
:100E3C00234A1A63FB681B686FF002021A60FB6896
:100E4C001B689A68FB681B6842F480729A60FB68A6
:100E5C00186AFB681B684C331946BA687B6800F04B
:100E6C00AFFBFB681B689B6803F46023B3F5602F32
:100E7C0008D1FB681B689A68FB681B6842F4A002E7
:100E8C009A600FE0FB681B689A68FB681B6842F469
:100E9C0080129A6006E0FB68002283F8242001E0AF
:100EAC000123FB75FB7D18461837BD4680BD00BF7E
:100EBC0000240140002801402F120008AB1200084A
:100ECC00C712000880B483B000AF786000BF0C3745
:100EDC00BD4680BC704780B483B000AF786000BF63
:100EEC000C37BD4680BC704780B483B000AF7860CF
:100EFC0000BF0C37BD4680BC7047000080B485B085
:100F0C0000AF786039600023FB730023BB607B6803
:100F1C0093F82430012B01D10223DCE07B68012201
:100F2C0083F824203B685B68062B1CD87B681B6805
:100F3C00596B3B685A6813469B001344053B1F22B0
:100F4C0002FA03F3DB4319403B6818683B685A68A4
:100F5C0013469B001344053B00FA03F27B681B68A5
:100F6C000A435A633CE03B685B680C2B1CD87B68DB
:100F7C001B68196B3B685A6813469B001344233B50
:100F8C001F2202FA03F3DB4319403B6818683B68E5
:100F9C005A6813469B001344233B00FA03F27B6808
:100FAC001B680A431A631BE07B681B68D96A3B68A1
:100FBC005A6813469B001344413B1F2202FA03F369
:100FCC00DB4319403B6818683B685A6813469B0022
:100FDC001344413B00FA03F27B681B680A43DA6254
:100FEC003B681B68092B1CD97B681B68D9683B685C
:100FFC001A6813465B0013441E3B072202FA03F3E4
:10100C00DB4319403B6898683B681A6813465B00E1
:10101C0013441E3B00FA03F27B681B680A43DA6038
:10102C0019E07B681B6819693B681A6813465B00FA
:10103C001344072202FA03F3DB4319403B68986818
:10104C003B681A6813465B00134400FA03F27B6892
:10105C001B680A431A613B681B68102B03D03B6862
:10106C001B68112B32D17B681B681D4A934225D11A
:10107C007B681B689B6803F40003002B26D17B68FC
:10108C001B689A687B681B6842F400029A603B6894
:10109C001B68102B1AD1134B1B68134AA2FB03239A
:1010AC009A0C13469B0013445B00BB6002E0BB68C8
:1010BC00013BBB60BB68002BF9D107E07B689B6AE6
:1010CC0043F020027B689A620123FB737B68002249
:1010DC0083F82420FB7B18461437BD4680BC704730
:1010EC00002401400000002083DE1B4380B584B047
:1010FC0000AF78600023FB600023BB607B681B683B
:10110C009B6803F00103012B40D07B681B689A6835
:10111C007B681B6842F001029A601F4B1B681F4AD8
:10112C00A2FB03239B0CBB6002E0BB68013BBB60D2
:10113C00BB68002BF9D1FFF7E1FCF8601FE0FFF76B
:10114C00DDFC0246FB68D31A022B18D97B681B689E
:10115C009B6803F00103012B11D07B689B6A43F061
:10116C0010027B689A627B68DB6A43F001027B6841
:10117C00DA627B68002283F82420012307E07B6875
:10118C001B689B6803F00103012BD8D10023184680
:10119C001037BD4680BD00BF0000002083DE1B431E
:1011AC0080B584B000AF78600023FB607B681B685F
:1011BC009B6803F00103012B2ED17B681B689A6896
:1011CC007B681B6822F001029A60FFF797FCF860BD
:1011DC001BE0FFF793FC0246FB68D31A022B14D9D1
:1011EC007B681B689B6803F00103012B0DD17B68A6
:1011FC009B6A43F010027B689A627B68DB6A43F05F
:10120C0001027B68DA62012307E07B681B689B683C
:10121C0003F00103012BDCD0002318461037BD4628
:10122C0080BD80B584B000AF78607B685B6AFB6082
:10123C00FB689B6A03F05003002B27D1FB689B6A69
:10124C0043F40072FB689A62FB681B689B6803F4AA
:10125C006023B3F5602F15D1FB681B7B002B11D1DC
:10126C00FB689B6A23F48072FB689A62FB689B6A3A
:10127C0003F48053002B05D1FB689B6A43F00102F9
:10128C00FB689A62F868FFF71DFE04E0FB681B6AB6
:10129C001B6B7868984700BF1037BD4680BD80B582
:1012AC0084B000AF78607B685B6AFB60F868FFF71E
:1012BC0012FE00BF1037BD4680BD80B584B000AFB4
:1012CC0078607B685B6AFB60FB689B6A43F040025A
:1012DC00FB689A62FB68DB6A43F00402FB68DA6223
:1012EC00F868FFF701FE00BF1037BD4680BD000057
:1012FC0080B485B000AF78607B6803F00703FB60B7
:10130C000C4BDB68BB60BA684FF6FF031340BB6045
:10131C00FB681A02BB68134343F0BF6343F400330A
:10132C00BB60044ABB68D36000BF1437BD4680BCA9
:10133C00704700BF00ED00E080B400AF044BDB68E9
:10134C001B0A03F007031846BD4680BC704700BF5C
:10135C0000ED00E080B483B000AF0346FB7197F959
:10136C000730002B0BDBFB7903F01F02064997F9C2
:10137C0007305B09012000FA02F241F8232000BF7C
:10138C000C37BD4680BC704700E100E080B483B0F0
:10139C0000AF03463960FB7197F90730002B0ADB6D
:1013AC003B68DAB20C4997F907301201D2B20B4400
:1013BC0083F800230AE03B68DAB20849FB7903F0B2
:1013CC000F03043B1201D2B20B441A7600BF0C3748
:1013DC00BD4680BC704700BF00E100E000ED00E0BE
:1013EC0080B489B000AFF860B9607A60FB6803F034
:1013FC000703FB61FB69C3F10703042B28BF04231C
:10140C00BB61FB690433062B02D9FB69033B00E08B
:10141C0000237B614FF0FF32BB6902FA03F3DA431E
:10142C00BB681A407B699A404FF0FF317B6901FA27
:10143C0003F3D9437B680B40134318462437BD464E
:10144C0080BC704780B582B000AF78607B68013B90
:10145C00B3F1807F01D301230FE00A4A7B68013B83
:10146C0053600F214FF0FF30FFF790FF054B002228
:10147C009A60044B07221A60002318460837BD46B1
:10148C0080BD00BF10E000E080B582B000AF786096
:10149C007868FFF72DFF00BF0837BD4680BD80B5CB
:1014AC0086B000AF0346B9607A60FB7300237B61A2
:1014BC00FFF742FF78617A68B9687869FFF790FFA7
:1014CC00024697F90F3011461846FFF75FFF00BF31
:1014DC001837BD4680BD80B582B000AF0346FB71A6
:1014EC0097F907301846FFF735FF00BF0837BD46A0
:1014FC0080BD80B582B000AF78607868FFF7A2FF3E
:10150C00034618460837BD4680BD000080B485B040
:10151C0000AF78600023FB607B68002B01D10123B6
:10152C0043E07B681B681A46224B1344224AA2FBF9
:10153C0003231B099A007B681A647B681F4ADA63D1
:10154C007B68022283F821207B681B681B68FB6088
:10155C00FB6823F47F5323F03003FB607B685A68ED
:10156C007B689B681A437B68DB681A437B681B6942
:10157C001A437B685B691A437B689B691A437B68D7
:10158C00DB691343FA681343FB607B681B68FA68DA
:10159C001A607B6800229A637B68012283F8212001
:1015AC007B68002283F82020002318461437BD46A0
:1015BC0080BC7047F8FFFDBFCDCCCCCC0000024006
:1015CC0080B586B000AFF860B9607A603B600023EC
:1015DC00FB75FB6893F82030012B01D102234AE004
:1015EC00FB68012283F82020FB6893F82130012B43
:1015FC003AD1FB68022283F82120FB6800229A630F
:10160C00FB681B681A68FB681B6822F001021A60F1
:10161C003B687A68B968F86800F038F9FB68DB6AEF
:10162C00002B08D0FB681B681A68FB681B6842F02B
:10163C000E021A600FE0FB681B681A68FB681B68D7
:10164C0022F004021A60FB681B681A68FB681B68AE
:10165C0042F00A021A60FB681B681A68FB681B6878
:10166C0042F001021A6005E0FB68002283F820209A
:10167C000223FB75FB7D18461837BD4680BD000064
:10168C0080B584B000AF78607B68DB6B1B68FB6057
:10169C007B681B681B68BB607B681B6C04229A40D0
:1016AC00FB681340002B4FD0BB6803F00403002BE6
:1016BC004AD07B681B681B6803F02003002B07D102
:1016CC007B681B681A687B681B6822F004021A602E
:1016DC007B681B68664A934229D07B681B68654A05
:1016EC00934222D07B681B68634A93421AD07B6872
:1016FC001B68624A934212D07B681B68604A934213
:10170C000AD07B681B685F4A934202D14FF4800376
:10171C000EE04FF080630BE04FF4802308E04FF4B1
:10172C00804305E04FF4806302E0402300E0042393
:10173C00554A53607B68DB6A002B00F094807B6811
:10174C00DB6A786898478EE07B681B6C02229A40B3
:10175C00FB681340002B56D0BB6803F00203002B30
:10176C0051D07B681B681B6803F02003002B0BD146
:10177C007B681B681A687B681B6822F00A021A6077
:10178C007B68012283F821207B681B68384A9342CE
:10179C0029D07B681B68374A934222D07B681B6830
:1017AC00354A93421AD07B681B68344A934212D054
:1017BC007B681B68324A93420AD07B681B68314AAB
:1017CC00934202D14FF400130EE04FF000730BE084
:1017DC004FF4003308E04FF4005305E04FF400736E
:1017EC0002E0202300E00223274A53607B6800229A
:1017FC0083F820207B689B6A002B34D07B689B6A23
:10180C00786898472FE07B681B6C08229A40FB682D
:10181C001340002B28D0BB6803F00803002B23D007
:10182C007B681B681A687B681B6822F00E021A60C2
:10183C007B681A6C7B68DB6B012101FA02F25A603F
:10184C007B6801229A637B68012283F821207B68E4
:10185C00002283F820207B681B6B002B04D07B6854
:10186C001B6B7868984700BF00BF1037BD4680BD22
:10187C00080002401C0002403000024044000240BC
:10188C00580002406C0002400000024080B485B059
:10189C0000AFF860B9607A603B60FB681A6CFB685B
:1018AC00DB6B012101FA02F25A60FB681B683A6893
:1018BC005A60FB685B68102B08D1FB681B687A6860
:1018CC009A60FB681B68BA68DA6007E0FB681B6803
:1018DC00BA689A60FB681B687A68DA6000BF1437D4
:1018EC00BD4680BC7047000080B48BB000AF786000
:1018FC00396000237B6200233B6248E101227B6A52
:10190C0002FA03F3FB613B681B68FA691340BB6185
:10191C00BA69FB699A4240F037813B685B68A34A1D
:10192C0093425ED0A14A934275D8A14A934258D0B3
:10193C009F4A93426FD89F4A934252D09D4A9342FA
:10194C0069D89D4A93424CD09B4A934263D89B4A98
:10195C00934246D0994A93425DD8122B2AD8122B27
:10196C0059D801A252F823F0EF190008C919000840
:10197C00DB1900081D1A0008231A0008231A000896
:10198C00231A0008231A0008231A0008231A000837
:10199C00231A0008231A0008231A0008231A000827
:1019AC00231A0008231A0008231A0008D11900086A
:1019BC00E5190008824A934213D02CE03B68DB689F
:1019CC003B6229E03B68DB6804333B6224E03B6804
:1019DC00DB6808333B621FE03B68DB680C333B621F
:1019EC001AE03B689B68002B02D104233B6213E096
:1019FC003B689B68012B05D108233B627B68FA6925
:101A0C001A6109E008233B627B68FA695A6103E0BA
:101A1C0000233B6200E000BFBB69FF2B01D87B6851
:101A2C0001E07B6804337B61BB69FF2B02D87B6AC6
:101A3C009B0002E07B6A083B9B003B617B691A6858
:101A4C000F213B6901FA03F3DB431A40396A3B6906
:101A5C0001FA03F31A437B691A603B685B6803F075
:101A6C008053002B00F09080564B9B69554A43F0F5
:101A7C0001039361534B9B6903F00103BB60BB688B
:101A8C00514A7B6A9B08023352F82330FB607B6A15
:101A9C0003F003039B000F2202FA03F3DB43FA6803
:101AAC001340FB607B68494A93420DD07B68484ADF
:101ABC00934207D07B68474A934201D1022304E04A
:101ACC00032302E0012300E000237A6A02F0030200
:101ADC0092009340FA681343FB603B497B6A9B0876
:101AEC000233FA6841F823203B685B6803F48033C7
:101AFC00002B06D0384B1A683749BB6913430B606F
:101B0C0006E0354B1A68BB69DB43334913400B6065
:101B1C003B685B6803F40033002B06D02E4B5A68ED
:101B2C002D49BB6913434B6006E02B4B5A68BB69CC
:101B3C00DB43294913404B603B685B6803F480131B
:101B4C00002B06D0244B9A682349BB6913438B6046
:101B5C0006E0214B9A68BB69DB431F4913408B603D
:101B6C003B685B6803F40013002B06D01A4BDA6851
:101B7C001949BB691343CB6006E0174BDA68BB69A4
:101B8C00DB4315491340CB607B6A01337B623B68B6
:101B9C001A687B6A22FA03F3002B7FF4AFAE00BF06
:101BAC0000BF2C37BD4680BC704700BF0000321010
:101BBC000000311000002210000021100000121053
:101BCC00000011100010024000000140000801400C
:101BDC00000C0140001001400004014080B483B0AF
:101BEC0000AF78600B467B8013467B707B78002BB4
:101BFC0003D07A887B681A6103E07B881A047B68BF
:101C0C001A6100BF0C37BD4680BC704780B582B0EE
:101C1C0000AF0346FB80084B5A69FB881340002B2E
:101C2C0006D0054AFB885361FB88184600F006F87D
:101C3C0000BF0837BD4680BD0004014080B483B0AE
:101C4C0000AF0346FB8000BF0C37BD4680BC70471D
:101C5C0080B584B000AF78607B68002B01D1012384
:101C6C002BE17B6893F83D30DBB2002B06D17B680F
:101C7C00002283F83C207868FEF7DAFD7B6824228A
:101C8C0083F83D207B681B681A687B681B6822F010
:101C9C0001021A607B681B681A687B681B6842F437
:101CAC0000421A607B681B681A687B681B6822F408
:101CBC0000421A6000F0E4FCF8607B685B68814AC3
:101CCC00934207D8FB68804A934294BF01230023B8
:101CDC00DBB206E0FB687D4A934294BF01230023EC
:101CEC00DBB2002B01D00123E7E0FB68784AA2FBB2
:101CFC0003239B0CBB607B681B685B6823F03F0174
:101D0C007B681B68BA680A435A607B681B681B6A4D
:101D1C0023F03F017B685B686A4A934202D8BB6838
:101D2C00013309E0BB684FF4967202FB03F3694A76
:101D3C00A2FB03239B0901337A6812680B431362DD
:101D4C007B681B68DB6923F44F4222F0FF027B683F
:101D5C005B685C498B4219D8FB68591E7B685B68D1
:101D6C005B00B1FBF3F3591C40F6FC730B40002BEA
:101D7C000AD0FB68591E7B685B685B00B1FBF3F310
:101D8C000133C3F30B0351E004234FE07B689B68E2
:101D9C00002B11D1FB68581E7B6859680B465B0001
:101DAC000B44B0FBF3F30133C3F30B03002B0CBF59
:101DBC0001230023DBB212E0FB68581E7B685968D4
:101DCC000B469B000B4499000B44B0FBF3F301331F
:101DDC00C3F30B03002B0CBF01230023DBB2002B3E
:101DEC0001D0012322E07B689B68002B0ED1FB689D
:101DFC00581E7B6859680B465B000B44B0FBF3F331
:101E0C000133C3F30B0343F400430FE0FB68581E8C
:101E1C007B6859680B469B000B4499000B44B0FB44
:101E2C00F3F30133C3F30B0343F4404379680968BC
:101E3C001343CB617B681B681B6823F0C0017B6874
:101E4C00DA697B681B6A1A437B681B680A431A6051
:101E5C007B681B689B6823F4034323F0FF037A68B9
:101E6C0011697A68D26811437A6812680B439360DF
:101E7C007B681B68DB6823F0FF017B685A697B6811
:101E8C009B691A437B681B680A43DA607B681B6892
:101E9C001A687B681B6842F001021A607B6800229A
:101EAC001A647B68202283F83D207B6800221A6329
:101EBC007B68002283F83E20002318461037BD466D
:101ECC0080BD00BFA08601007F841E00FF083D007E
:101EDC0083DE1B43D34D621080B586B000AF7860B3
:101EEC007B68002B01D101236CE27B681B6803F03B
:101EFC000103002B00F08780924B5B6803F00C030E
:101F0C00042B0CD08F4B5B6803F00C03082B12D105
:101F1C008C4B5B6803F48033B3F5803F0BD1894B5A
:101F2C001B6803F40033002B6CD07B685B68002BC0
:101F3C0068D1012346E27B685B68B3F5803F06D12C
:101F4C00804B1B687F4A43F4803313602EE07B6820
:101F5C005B68002B0CD17B4B1B687A4A23F48033D3
:101F6C001360784B1B68774A23F4802313601DE0C1
:101F7C007B685B68B3F5A02F0CD1724B1B68714A60
:101F8C0043F4802313606F4B1B686E4A43F4803319
:101F9C0013600BE06B4B1B686A4A23F480331360AD
:101FAC00684B1B68674A23F4802313607B685B686B
:101FBC00002B13D0FEF7A2FD386108E0FEF79EFD62
:101FCC0002463B69D31A642B01D90323FAE15D4B1A
:101FDC001B6803F40033002BF0D014E0FEF78EFDE9
:101FEC00386108E0FEF78AFD02463B69D31A642B80
:101FFC0001D90323E6E1534B1B6803F40033002B98
:10200C00F0D100E000BF7B681B6803F00203002BDB
:10201C0063D04C4B5B6803F00C03002B0BD0494B8B
:10202C005B6803F00C03082B1CD1464B5B6803F474
:10203C008033002B16D1434B1B6803F00203002B9B
:10204C0005D07B681B69012B01D00123BAE13D4B04
:10205C001B6823F0F8027B685B69DB00394913438A
:10206C000B603AE07B681B69002B20D0364B0122B9
:10207C001A60FEF743FD386108E0FEF73FFD0246AB
:10208C003B69D31A022B01D903239BE12D4B1B680F
:10209C0003F00203002BF0D02A4B1B6823F0F8024C
:1020AC007B685B69DB00274913430B6015E0264B0B
:1020BC0000221A60FEF722FD386108E0FEF71EFDD3
:1020CC0002463B69D31A022B01D903237AE11D4B3B
:1020DC001B6803F00203002BF0D17B681B6803F034
:1020EC000803002B3AD07B689B69002B19D0174B47
:1020FC0001221A60FEF702FD386108E0FEF7FEFCD3
:10210C0002463B69D31A022B01D903235AE10D4B2A
:10211C005B6A03F00203002BF0D0012000F0D8FA28
:10212C001CE00A4B00221A60FEF7E8FC38610FE055
:10213C00FEF7E4FC02463B69D31A022B08D90323B1
:10214C0040E100BF001002400000424280044242C5
:10215C009E4B5B6A03F00203002BE9D17B681B6882
:10216C0003F00403002B00F0A6800023FB75974BB3
:10217C00DB6903F08053002B0DD1944BDB69934A40
:10218C0043F08053D361914BDB6903F08053BB6008
:10219C00BB680123FB758E4B1B6803F48073002B0B
:1021AC0018D18B4B1B688A4A43F480731360FEF77B
:1021BC00A5FC386108E0FEF7A1FC02463B69D31A86
:1021CC00642B01D90323FDE0814B1B6803F480735E
:1021DC00002BF0D07B68DB68012B06D17B4B1B6A94
:1021EC007A4A43F0010313622DE07B68DB68002B15
:1021FC000CD1764B1B6A754A23F001031362734BA7
:10220C001B6A724A23F0040313621CE07B68DB68D0
:10221C00052B0CD16D4B1B6A6C4A43F00403136203
:10222C006A4B1B6A694A43F0010313620BE0674B6C
:10223C001B6A664A23F001031362644B1B6A634AF0
:10224C0023F0040313627B68DB68002B15D0FEF7C8
:10225C0055FC38610AE0FEF751FC02463B69D31A83
:10226C0041F28832934201D90323ABE0574B1B6AEE
:10227C0003F00203002BEED014E0FEF73FFC3861B4
:10228C000AE0FEF73BFC02463B69D31A41F2883266
:10229C00934201D9032395E04C4B1B6A03F00203D4
:1022AC00002BEED1FB7D012B05D1484BDB69474A56
:1022BC0023F08053D3617B68DB69002B00F08180B5
:1022CC00424B5B6803F00C03082B61D07B68DB6925
:1022DC00022B46D13F4B00221A60FEF70FFC3861EF
:1022EC0008E0FEF70BFC02463B69D31A022B01D91E
:1022FC00032367E0354B1B6803F00073002BF0D110
:10230C007B681B6AB3F5803F08D1304B5B6823F4C4
:10231C0000327B689B682D4913434B602B4B5B68E9
:10232C0023F474127B68196A7B685B6A0B43274938
:10233C0013434B60274B01221A60FEF7DFFB386119
:10234C0008E0FEF7DBFB02463B69D31A022B01D9EE
:10235C00032337E01D4B1B6803F00073002BF0D0F8
:10236C002FE01C4B00221A60FEF7C8FB386108E016
:10237C00FEF7C4FB02463B69D31A022B01D9032397
:10238C0020E0124B1B6803F00073002BF0D118E017
:10239C007B68DB69012B01D1012313E00B4B5B68DC
:1023AC00FB60FB6803F480327B681B6A9A4206D19F
:1023BC00FB6803F470127B685B6A9A4201D00123BC
:1023CC0000E0002318461837BD4680BD00100240BF
:1023DC00007000406000424280B584B000AF78606D
:1023EC0039607B68002B01D10123D0E06A4B1B685C
:1023FC0003F007033A689A4210D9674B1B6823F025
:10240C00070265493B6813430B60634B1B6803F081
:10241C0007033A689A4201D00123B8E07B681B6835
:10242C0003F00203002B20D07B681B6803F004032D
:10243C00002B05D0594B5B68584A43F4E06353605A
:10244C007B681B6803F00803002B05D0534B5B68BB
:10245C00524A43F460535360504B5B6823F0F002D4
:10246C007B689B684D4913434B607B681B6803F08A
:10247C000103002B40D07B685B68012B07D1474BD5
:10248C001B6803F40033002B15D101237FE07B681C
:10249C005B68022B07D1414B1B6803F00073002BC8
:1024AC0009D1012373E03D4B1B6803F00203002BA1
:1024BC0001D101236BE0394B5B6823F003027B688D
:1024CC005B68364913434B60FEF718FBF8600AE073
:1024DC00FEF714FB0246FB68D31A41F28832934292
:1024EC0001D9032353E02D4B5B6803F00C027B688E
:1024FC005B689B009A42EBD1274B1B6803F00703E8
:10250C003A689A4210D2244B1B6823F007022249E6
:10251C003B6813430B60204B1B6803F007033A68BE
:10252C009A4201D0012332E07B681B6803F004035C
:10253C00002B08D0194B5B6823F4E0627B68DB68E6
:10254C00164913434B607B681B6803F00803002B90
:10255C0009D0124B5B6823F460527B681B69DB006B
:10256C000E4913434B6000F021F802460B4B5B689D
:10257C001B0903F00F030A49CB5C22FA03F3094A47
:10258C001360094B1B681846FEF776FA00231846B1
:10259C001037BD4680BD00BF002002400010024035
:1025AC00B0310008000000200400002090B48AB074
:1025BC0000AF2A4B3C1D0FCB84E80F0040F20123E7
:1025CC003B800023FB610023BB6100237B62002363
:1025DC007B6100233B62224B5B68FB61FB6903F070
:1025EC000C03042B02D0082B03D02DE01D4B3B62B7
:1025FC002DE0FB699B0C03F00F0307F12802134439
:10260C0013F8243C7B61FB6903F48033002B13D05B
:10261C00134B5B685B0C03F0010307F128021344B6
:10262C0013F8283CBB617B690E4A02FB03F2BB69C1
:10263C00B2FBF3F37B6204E07B690B4A02FB03F30E
:10264C007B627B6A3B6202E0064B3B6200BF3B6AEB
:10265C0018462837BD4690BC704700BFA031000813
:10266C000010024000127A0000093D0080B400AF57
:10267C00024B1B681846BD4680BC7047000000200A
:10268C0080B500AFFFF7F2FF0246054B5B681B0AF3
:10269C0003F007030349CB5C22FA03F3184680BD11
:1026AC0000100240C031000880B500AFFFF7DEFF1C
:1026BC000246054B5B68DB0A03F007030349CB5C5E
:1026CC0022FA03F3184680BD00100240C031000806
:1026DC0080B485B000AF78600A4B1B680A4AA2FB35
:1026EC0003235B0A7A6802FB03F3FB6000BFFB6801
:1026FC005A1EFA60002BF9D100BF00BF1437BD463B
:10270C0080BC704700000020D34D621080B586B0AD
:10271C0000AF786000233B610023FB607B681B6883
:10272C0003F00103002B7DD00023FB754F4BDB69BD
:10273C0003F08053002B0DD14C4BDB694B4A43F01B
:10274C008053D361494BDB6903F08053BB60BB689A
:10275C000123FB75464B1B6803F48073002B18D1C7
:10276C00434B1B68424A43F480731360FEF7C6F96F
:10277C00386108E0FEF7C2F902463B69D31A642BB4
:10278C0001D903236DE03A4B1B6803F48073002BD3
:10279C00F0D0364B1B6A03F44073FB60FB68002BD4
:1027AC002ED07B685B6803F44073FA689A4227D09A
:1027BC002E4B1B6A23F44073FB602E4B01221A60D4
:1027CC002C4B00221A60294AFB681362FB6803F049
:1027DC000103002B14D0FEF791F938610AE0FEF7E3
:1027EC008DF902463B69D31A41F28832934201D9E2
:1027FC00032336E01D4B1B6A03F00203002BEED0C3
:10280C001A4B1B6A23F440727B685B6817491343AD
:10281C000B62FB7D012B05D1144BDB69134A23F0B2
:10282C008053D3617B681B6803F00203002B08D034
:10283C000E4B5B6823F440427B689B680B49134347
:10284C004B607B681B6803F01003002B08D0074B10
:10285C005B6823F480027B68DB68044913434B609C
:10286C00002318461837BD4680BD00BF001002403B
:10287C00007000404004424280B582B000AF7860E6
:10288C007B68002B01D1012341E07B6893F83D303C
:10289C00DBB2002B06D17B68002283F83C207868E1
:1028AC00FEF704F87B68022283F83D207B681A68E7
:1028BC007B6804331946104600F036F97B68012218
:1028CC0083F846207B68012283F83E207B68012236
:1028DC0083F83F207B68012283F840207B6801222B
:1028EC0083F841207B68012283F842207B68012217
:1028FC0083F843207B68012283F844207B68012203
:10290C0083F845207B68012283F83D20002318467C
:10291C000837BD4680BD000080B485B000AF78603C
:10292C007B6893F83D30DBB2012B01D001232DE005
:10293C007B68022283F83D207B681B68164A934211
:10294C0009D07B681B68B3F1804F04D07B681B688F
:10295C00124A934211D17B681B689B6803F00703F2
:10296C00FB60FB68062B10D07B681B681A687B68C1
:10297C001B6842F001021A6007E07B681B681A684A
:10298C007B681B6842F001021A600023184614375A
:10299C00BD4680BC704700BF002C014000040040C5
:1029AC0080B584B000AF786039607B6893F83C30B8
:1029BC00012B01D10223B3E07B68012283F83C2078
:1029CC007B68022283F83D207B681B689B68FB6058
:1029DC00FB6823F07703FB60FB6823F47F43FB6009
:1029EC007B681B68FA689A603B681B68B3F5005FEC
:1029FC003ED0B3F5005F00F28780B3F5805F00F046
:102A0C008580B3F5805F7FD8702B1AD0702B7BD864
:102A1C00602B50D0602B77D8502B3CD0502B73D8D8
:102A2C00402B58D0402B6FD8302B64D0302B6BD828
:102A3C00202B60D0202B67D8002B5CD0102B5AD0C9
:102A4C0062E07B6818683B6899683B685A683B6829
:102A5C00DB6800F038F97B681B689B68FB60FB68DF
:102A6C0043F07703FB607B681B68FA689A604EE062
:102A7C007B6818683B6899683B685A683B68DB68F8
:102A8C0000F021F97B681B689A687B681B6842F42C
:102A9C0080429A603BE07B6818683B6859683B68E9
:102AAC00DB681A4600F098F87B681B6850211846C2
:102ABC0000F0EFF82BE07B6818683B6859683B68BE
:102ACC00DB681A4600F0B6F87B681B686021184674
:102ADC0000F0DFF81BE07B6818683B6859683B68BE
:102AEC00DB681A4600F078F87B681B6840211846B2
:102AFC0000F0CFF80BE07B681A683B681B6819463E
:102B0C00104600F0C6F802E000BF00E000BF7B6892
:102B1C00012283F83D207B68002283F83C200023AF
:102B2C0018461037BD4680BD80B485B000AF7860C4
:102B3C0039607B681B68FB607B68254A934207D031
:102B4C007B68B3F1804F03D07B68224A934208D153
:102B5C00FB6823F07003FB603B685B68FA68134307
:102B6C00FB607B681A4A934207D07B68B3F1804FB5
:102B7C0003D07B68174A934208D1FB6823F4407357
:102B8C00FB603B68DB68FA681343FB60FB6823F06F
:102B9C0080023B685B691343FB607B68FA681A60D0
:102BAC003B689A687B68DA623B681A687B689A6251
:102BBC007B68074A934203D13B681A697B681A63A6
:102BCC007B6801225A6100BF1437BD4680BC704738
:102BDC00002C01400004004080B487B000AFF860C6
:102BEC00B9607A60FB681B6A7B61FB681B6A23F027
:102BFC000102FB681A62FB689B693B613B6923F02D
:102C0C00F0033B617B681B013A6913433B617B69B1
:102C1C0023F00A037B617A69BB6813437B61FB6811
:102C2C003A699A61FB687A691A6200BF1C37BD4623
:102C3C0080BC704780B487B000AFF860B9607A6030
:102C4C00FB681B6A23F01002FB681A62FB689B6925
:102C5C007B61FB681B6A3B617B6923F470437B617E
:102C6C007B681B037A6913437B613B6923F0A003E8
:102C7C003B61BB681B013A6913433B61FB687A6992
:102C8C009A61FB683A691A6200BF1C37BD4680BC6A
:102C9C00704780B485B000AF786039607B689B6802
:102CAC00FB60FB6823F07003FB603A68FB6813431E
:102CBC0043F00703FB607B68FA689A6000BF143727
:102CCC00BD4680BC704780B487B000AFF860B96077
:102CDC007A603B60FB689B687B617B6923F47F4374
:102CEC007B613B681A027B681A43BB6813437A69A1
:102CFC0013437B61FB687A699A6000BF1C37BD4641
:102D0C0080BC704780B485B000AF786039607B6858
:102D1C0093F83C30012B01D1022341E07B68012266
:102D2C0083F83C207B68022283F83D207B681B687B
:102D3C005B68FB607B681B689B68BB60FB6823F06F
:102D4C007003FB603B681B68FA681343FB607B688D
:102D5C001B68FA685A607B681B68144A934209D056
:102D6C007B681B68B3F1804F04D07B681B68104AEA
:102D7C0093420CD1BB6823F08003BB603B685B685B
:102D8C00BA681343BB607B681B68BA689A607B683F
:102D9C00012283F83D207B68002283F83C2000232D
:102DAC0018461437BD4680BC704700BF002C01404C
:102DBC000004004080B582B000AF78607B68002BC7
:102DCC0001D101233FE07B6893F83D30DBB2002B4F
:102DDC0006D17B68002283F83C207868FDF784FDDF
:102DEC007B68242283F83D207B681B68DA687B684B
:102DFC001B6822F40052DA60786800F005F97B68F1
:102E0C001B681A697B681B6822F490421A617B6804
:102E1C001B685A697B681B6822F02A025A617B681E
:102E2C001B68DA687B681B6842F40052DA607B68C6
:102E3C0000221A647B68202283F83D207B682022C4
:102E4C0083F83E20002318460837BD4680BD80B568
:102E5C008AB002AFF860B9603B601346FB80002378
:102E6C007B61FB6893F83D30DBB2202B7CD1BB68D7
:102E7C00002B02D0FB88002B01D1012375E0FB68ED
:102E8C0093F83C30012B01D102236EE0FB68012248
:102E9C0083F83C20FB6800221A64FB68212283F82B
:102EAC003D20FDF72BFE7861FB68FA889A84FB685D
:102EBC00FA88DA84FB689B68B3F5805F08D1FB68FD
:102ECC001B69002B04D10023FB61BB68BB6103E0D1
:102EDC00BB68FB610023BB61FB68002283F83C20CC
:102EEC002AE03B6800937B6900228021F86800F09F
:102EFC0040F80346002B01D0032336E0FB69002B7E
:102F0C000BD1BB691B881A46FB681B68C2F308020D
:102F1C005A60BB690233BB6107E0FB691A78FB6836
:102F2C001B685A60FB690133FB61FB68DB8C9BB24D
:102F3C00013B9AB2FB68DA84FB68DB8C9BB2002BFA
:102F4C00CFD13B6800937B6900224021F86800F0E8
:102F5C0010F80346002B01D0032306E0FB68202267
:102F6C0083F83D20002300E0022318462037BD469D
:102F7C0080BD80B584B000AFF860B9603B6013468B
:102F8C00FB712CE0BB69B3F1FF3F28D0BB69002B70
:102F9C0007D0FDF7B3FD02463B68D31ABA699A42D3
:102FAC001DD2FB681B68DA68FB681B6822F4D072C0
:102FBC00DA60FB681B685A69FB681B6822F0010227
:102FCC005A61FB68202283F83D20FB68202283F89D
:102FDC003E20FB68002283F83C2003230FE0FB68B3
:102FEC001B681A68BB681340BA689A420CBF01236D
:102FFC000023DBB21A46FB799A42C3D00023184651
:10300C001037BD4680BD000080B584B000AF78603D
:10301C007B681B681B6923F440517B68DA687B680A
:10302C001B680A431A617B689A687B681B691A43A0
:10303C007B685B691343BB607B681B68DB6823F4AC
:10304C00B05323F00C037A681268B9680B43D36051
:10305C007B681B685B6923F440717B689A697B68A9
:10306C001B680A435A617B681B682C4A934203D144
:10307C00FFF71AFBF86002E0FFF702FBF860FA6852
:10308C0013469B0013449A001A447B685B689B00B0
:10309C00B2FBF3F3224AA2FB03235B091901FA6882
:1030AC0013469B0013449A001A447B685B689B0090
:1030BC00B2FBF3F21A4BA3FB02035B09642000FB87
:1030CC0003F3D31A1B013233154AA2FB03235B090A
:1030DC0003F0F0031944FA6813469B0013449A005A
:1030EC001A447B685B689B00B2FBF3F20C4BA3FBAE
:1030FC0002035B09642000FB03F3D31A1B01323378
:10310C00074AA2FB03235B0903F00F027B681B68D1
:10311C000A449A6000BF1037BD4680BD003801409C
:10312C001F85EB5170B500260C4D0D4C641BA41083
:10313C00A64209D100F022F800260A4D0A4C641B65
:10314C00A410A64205D170BD55F8043B9847013632
:10315C00EEE755F8043B98470136F2E7C831000812
:10316C00C8310008C8310008CC31000803460244BD
:10317C00934200D1704703F8011BF9E7F8B500BF83
:10318C00F8BC08BC9E467047F8B500BFF8BC08BC3C
:04319C009E46704794
:1031A00002030405060708090A0B0C0D0E0F101088
:1031B00000000000000000000102030406070809E7
:0831C0000000000001020304FD
:0431C80031010008C9
:0431CC000D010008E9
:0C31D0000024F4001000000001000000CA
:0400000508000A0DD8
:00000001FF
