:020000040800F2
:1000000000280020B10C0008250A00082B0A00086F
:10001000310A0008370A00083D0A00080000000005
:10002000000000000000000000000000430A00087B
:100030004F0A0008000000005B0A0008670A000879
:10004000F90C0008F90C0008F90C0008F90C00087C
:10005000F90C0008F90C0008F90C0008F90C00086C
:10006000F90C0008F90C0008F90C0008750A0008E2
:10007000F90C0008F90C0008F90C0008F90C00084C
:10008000F90C0008F90C000859090008F90C0008DF
:10009000F90C0008F90C0008F90C0008F90C00082C
:1000A000F90C0008F90C0008F90C0008F90C00081C
:1000B000F90C0008890A000800000000F90C00088B
:1000C000F90C00080000000000000000F90C000816
:1000D000000000009D0A0008F90C00080000000064
:1000E000B10A0008F90C0008F90C00080000000033
:1000F0000000000000000000000000000000000000
:0C01000000000000000000005FF808F1A3
:10010C0010B5054C237833B9044B13B10448AFF345
:10011C0000800123237010BD0C00002000000000A3
:10012C002443000808B5034B1BB103490348AFF344
:10013C00008008BD000000001000002024430008CF
:10014C0080B584B000AF3B1D00221A605A609A60E3
:10015C002E4B2F4A1A602D4B4FF480729A602B4B0A
:10016C0000221A73294B00221A75284B4FF4602277
:10017C00DA61264B00225A60244B04221A61234870
:10018C0000F018FE0346002B01D000F00DFC0023FC
:10019C007B600123BB600523FB603B1D19461B489C
:1001AC0001F09CF80346002B01D000F0FDFB01236D
:1001BC007B600223BB603B1D1946144801F08EF88E
:1001CC000346002B01D000F0EFFB02237B600323DE
:1001DC00BB603B1D19460D4801F080F80346002B0F
:1001EC0001D000F0E1FB03237B600423BB603B1DCB
:1001FC001946064801F072F80346002B01D000F0B6
:10020C00D3FB00BF1037BD4680BD00BF6800002087
:10021C000024014080B588B000AF786007F110036E
:10022C0000221A605A609A60DA607B681B68284A60
:10023C00934249D1274B9B69264A43F4007393613F
:10024C00244B9B6903F40073FB60FB68214B9B6997
:10025C00204A43F0040393611E4B9B6903F0040393
:10026C00BB60BB680F233B6103237B6107F1100369
:10027C001946194801F0DCFE184B194A1A60174B45
:10028C0000225A60154B00229A60144B8022DA60CF
:10029C00124B4FF480721A61104B4FF480625A610A
:1002AC000E4B00229A610D4B0022DA610B4801F0D3
:1002BC0021FC0346002B01D000F076FB7B68074A3B
:1002CC001A62064A7B68536200BF2037BD4680BD68
:1002DC00002401400010024000080140980000205A
:1002EC000800024080B500AF064B074A1A6005486B
:1002FC0001F0B1FB0346002B01D000F055FB00BF11
:10030C0080BD00BFDC0000200030024080B485B00E
:10031C0000AF78607B681B68094A93420BD1094B8C
:10032C005B69084A43F040035361064B5B6903F079
:10033C004003FB60FB6800BF1437BD4680BC7047B0
:10034C00003002400010024080B582B000AF0C4B70
:10035C005B690B4A43F001035361094B5B6903F082
:10036C0001037B607B68002200210B2001F03DFB28
:10037C000B2001F056FB00BF0837BD4680BD00BF07
:10038C000010024080B586B000AF07F108030022D0
:10039C001A605A609A60DA60224B9B69214A43F0DA
:1003AC00040393611F4B9B6903F004037B607B6820
:1003BC001C4B9B691B4A43F008039361194B9B69C7
:1003CC0003F008033B603B6801224FF400611648C0
:1003DC0001F0A8FF4FF40063BB600123FB60012315
:1003EC003B6102237B6107F1080319460E4801F0BB
:1003FC001FFE4FF48053BB600C4BFB6001233B6131
:10040C0007F108031946084801F012FE00220021EA
:10041C00282001F0EAFA282001F003FB00BF18376E
:10042C00BD4680BD00100240000C014000001110C0
:10043C0080B500AF124B134A1A60114B124A5A6026
:10044C000F4B00229A600E4B0022DA600C4B4FF4DB
:10045C0080421A610A4B00225A61094B00229A61B0
:10046C00074B0022DA61064B00221A62044801F0A5
:10047C0093FF0346002B01D000F096FA00BF80BD1D
:10048C00E400002000540040801A060080B588B0BB
:10049C0000AF786007F1100300221A605A609A606E
:1004AC00DA607B681B68154A934223D1144B9B6915
:1004BC00134A43F008039361114B9B6903F0080343
:1004CC00FB60FB68C0233B6112237B610023BB6193
:1004DC0007F1100319460B4801F0AAFD084BDB6924
:1004EC00074A43F40013D361054BDB6903F4001393
:1004FC00BB60BB6800BF2037BD4680BD00540040C8
:10050C0000100240000C014080B584B000AF0346DF
:10051C00FB71124AFB791370104B20225A70002386
:10052C00BB6002220D490E4801F0B1FA0346DBB262
:10053C00BB600A4BF0229A700323FB7306E0FB7B33
:10054C00064AFF21D154FB7B0133FB73FB7B312B20
:10055C00F5D900BF00BF1037BD4680BD2800002074
:10056C00DC00002080B500AF0C4B00221A700B4B46
:10057C0000225A70094B00229A706020FFF7C4FFCA
:10058C00074801F0A5F8074B1B686FF001021A61D0
:10059C00044802F029FE00BF80BD00BF38010020D6
:1005AC00680000203C01002080B500AF0422034904
:1005BC00034800F0D7FC00BF80BD00BF5C000020EA
:1005CC006800002080B400AF5B4B5B88B3F52F7FD5
:1005DC0005D25A4B64221A70584B01225A70564B52
:1005EC005B88B3F5AF6F0AD2534B5B88B3F52F7FA3
:1005FC0005D9524B41221A70504B01225A704E4B66
:10060C005B88B3F5E16F0AD24B4B5B88B3F5AF6FE8
:10061C0005D94A4B1E221A70484B01225A70464B80
:10062C005B8840F69802934205D9444B14221A7009
:10063C00424B02225A70404B5B88B3F5E16F0BD9E9
:10064C003D4B5B8840F69702934205D83B4B00220A
:10065C001A703A4B00225A70374B9B88B3F52F7F98
:10066C0005D2364B4B229A70344B0122DA70324B46
:10067C009B88B3F5AF6F0AD22F4B9B88B3F52F7FB6
:10068C0005D92E4B32229A702C4B0122DA702A4B50
:10069C009B88B3F5E16F0AD2274B9B88B3F5AF6FFC
:1006AC0005D9264B14229A70244B0122DA70224B66
:1006BC009B8840F6980293420BD91F4B9B8840F6BF
:1006CC001B42934205D81D4B14229A701B4B0222DD
:1006DC00DA70194B9B8840F61C4293420BD9164B8F
:1006EC009B8840F6D762934205D8144B41229A70EE
:1006FC00124B0222DA70104B9B8840F6D862934260
:10070C0005D90E4B64229A700C4B0222DA700A4BFC
:10071C009B88B3F5E16F0BD9074B9B8840F697028A
:10072C00934205D8054B00229A70044B0022DA70D4
:10073C0000BFBD4680BC70475C00002064000020F8
:10074C0080B485B000AF396011461A460346FB7180
:10075C000B46BB7113467B710023FB730BE0FA7BDA
:10076C00BB79C3F12D039A4203DAFB7B0133FB7394
:10077C0001E001233DE0FB7B204AD35CFF2BEED153
:10078C00FB7B1E49FA79CA54FB7B0133FB73FB7B61
:10079C001A497A79CA54FB7B0133FB73FB7BBB731D
:1007AC000CE0BA7BFB7BD31A1A463B681A44BB7B22
:1007BC001178124AD154BB7B0133BB73BA7BF97BE2
:1007CC00BB790B449A42ECDBFA7BBB7913440B4AA2
:1007DC00FD21D154FA7BBB7913440133074AFA212A
:1007EC00D154FA7BBB7913440233044A0021D1540F
:1007FC00002318461437BD4680BC704728000020E3
:10080C0080B500AF00F074FA00F048F8FFF7BAFDBD
:10081C00FFF79AFDFFF794FCFFF70AFE00F0C4F90E
:10082C0000F04EF9FFF75EFDFFF79CFE174B1B78AF
:10083C00DBB2012B04D1154B00221A70FFF7B4FE6A
:10084C00124B5B78DBB2012B05D1104B00225A7096
:10085C000E4B01229A700D4B9B78DBB2012BE5D12C
:10086C000A4B00229A70FFF7ADFE012304220849BF
:10087C009620FFF765FF642332220649064803F0F1
:10088C0094F86020FFF740FED0E700BF380100204D
:10089C0064000020280000208401002080B594B062
:1008AC0000AF07F1280328220021184603F02CFD85
:1008BC0007F1140300221A605A609A60DA601A6118
:1008CC003B1D00221A605A609A60DA600223BB62F8
:1008DC000123BB631023FB6302237B640023BB64F3
:1008EC004FF46013FB6407F12803184601F098FEDF
:1008FC000346002B01D000F057F80F237B61022335
:10090C00BB610023FB614FF480633B6200237B627D
:10091C0007F114030221184602F002F90346002BDA
:10092C0001D000F041F802237B604FF44043FB60A0
:10093C003B1D184602F08EFA0346002B01D000F046
:10094C0033F800BF5037BD4680BD000080B500AF06
:10095C00024800F0E5FB00BF80BD00BF680000202E
:10096C0080B483B000AF78607B681B68054A934203
:10097C0002D1054B01221A7000BF0C37BD4680BC5A
:10098C00704700BF000400403801002080B483B0E1
:10099C0000AF7860034B01225A7000BF0C37BD4684
:1009AC0080BC70473801002080B400AF72B600BF25
:1009BC00FEE7000080B485B000AF154B9B69144A6C
:1009CC0043F001039361124B9B6903F00103BB607D
:1009DC00BB680F4BDB690E4A43F08053D3610C4B61
:1009EC00DB6903F080537B607B680A4B5B68FB60C0
:1009FC00FB6823F0E063FB60FB6843F00073FB6073
:100A0C00044AFB68536000BF1437BD4680BC704776
:100A1C00001002400000014080B400AFFEE780B43B
:100A2C0000AFFEE780B400AFFEE780B400AFFEE796
:100A3C0080B400AFFEE780B400AF00BFBD4680BC01
:100A4C00704780B400AF00BFBD4680BC704780B417
:100A5C0000AF00BFBD4680BC704780B500AF00F052
:100A6C008DF900BF80BD000080B500AF024801F0D9
:100A7C00ABF900BF80BD00BF9800002080B500AF6F
:100A8C00024802F0FDFB00BF80BD00BF3C0100200E
:100A9C0080B500AF024803F01BF800BF80BD00BF5B
:100AAC008401002080B500AF4FF4805001F052FC5F
:100ABC0000BF80BD80B400AF00BFBD4680BC704796
:100ACC0080B586B000AF07F1080300221A605A60A7
:100ADC009A60DA603B4600221A605A601D4B1E4A2F
:100AEC001A601C4B4FF47A425A601A4B00229A60DF
:100AFC00184BC822DA60174B00221A61154B0022E2
:100B0C009A61144802F020FB0346002B01D0FFF73A
:100B1C004BFF4FF48053BB6007F1080319460D4897
:100B2C0002F0B6FC0346002B01D0FFF73DFF20235B
:100B3C003B6000237B603B461946064802F07EFE74
:100B4C000346002B01D0FFF72FFF00BF1837BD461F
:100B5C0080BD00BF3C0100200004004080B584B083
:100B6C0000AF78607B681B680D4A934213D10D4B24
:100B7C00DB690C4A43F00203D3610A4BDB6903F0D7
:100B8C000203FB60FB68002200211D2000F02DFFFA
:100B9C001D2000F046FF00BF1037BD4680BD00BFD2
:100BAC00000400400010024080B500AF114B124A07
:100BBC001A60104B4FF416525A600E4B00229A607A
:100BCC000C4B0022DA600B4B00221A61094B0C22F1
:100BDC005A61084B00229A61064B0022DA610548E3
:100BEC0002F096FE0346002B01D0FFF7DDFE00BF9E
:100BFC0080BD00BF840100200038014080B588B062
:100C0C0000AF786007F1100300221A605A609A60F6
:100C1C00DA607B681B68204A934239D11F4B9B6971
:100C2C001E4A43F4804393611C4B9B6903F480433D
:100C3C00FB60FB68194B9B69184A43F004039361F2
:100C4C00164B9B6903F00403BB60BB684FF4007345
:100C5C003B6102237B610323FB6107F110031946FF
:100C6C000F4801F0E5F94FF480633B6100237B6191
:100C7C000023BB6107F110031946094801F0D8F9AC
:100C8C0000220521252000F0B0FE252000F0C9FE31
:100C9C0000BF2037BD4680BD003801400010024027
:100CAC00000801400C480D490D4A002302E0D458BD
:100CBC00C4500433C4188C42F9D30A4A0A4C00239A
:100CCC0001E013600432A242FBD3FFF7F3FE03F002
:100CDC00F7FAFFF795FD7047000000200C0000208C
:100CEC007C4300080C000020CC010020FEE7000033
:100CFC0080B500AF084B1B68074A43F01003136024
:100D0C00032000F067FE0F2000F008F8FFF752FEFA
:100D1C000023184680BD00BF0020024080B582B081
:100D2C0000AF7860124B1A68124B1B7819464FF4BF
:100D3C007A73B3FBF1F3B2FBF3F3184600F07FFECA
:100D4C000346002B01D001230EE07B680F2B0AD841
:100D5C00002279684FF0FF3000F047FE064A7B68AE
:100D6C001360002300E0012318460837BD4680BD00
:100D7C0000000020080000200400002080B400AF18
:100D8C00054B1B781A46054B1B681344034A13602A
:100D9C0000BFBD4680BC704708000020C801002081
:100DAC0080B400AF024B1B681846BD4680BC704730
:100DBC00C801002080B586B000AF78600023FB75B9
:100DCC0000233B610023BB600023FB607B68002B8E
:100DDC0001D10123BEE07B689B68002B7B689B6A7A
:100DEC00002B09D17B680022DA627B68002283F831
:100DFC0024207868FFF70EFA786800F0C1FB0346F0
:100E0C00FB757B689B6A03F01003002B40F0998004
:100E1C00FB7D002B40F095807B689B6A23F4885304
:100E2C0023F0020343F002027B689A627B685A68E3
:100E3C007B68DB691A437B681B7B5B001343BA68D6
:100E4C001343BB607B689B68B3F5807F03D07B68E2
:100E5C009B68012B02D14FF4807300E000233A69A8
:100E6C0013433B617B681B7D012B19D17B681B7B7A
:100E7C00002B09D17B689B69013B5A033B691343E7
:100E8C0043F400633B610BE07B689B6A43F02002F8
:100E9C007B689A627B68DB6A43F001027B68DA62EA
:100EAC007B681B685B6823F469417B681B683A6943
:100EBC000A435A607B681B689A68284B13407A680F
:100ECC001268B9680B4393607B689B68B3F5807FAD
:100EDC0003D07B689B68012B04D17B681B69013BA9
:100EEC001B05FB607B681B68DB6A23F470017B6865
:100EFC001B68FA680A43DA627B681B689A68184BAD
:100F0C001340BA689A420BD17B680022DA627B6884
:100F1C009B6A23F0030343F001027B689A6218E09A
:100F2C007B689B6A23F0120343F010027B689A6281
:100F3C007B68DB6A43F001027B68DA620123FB7594
:100F4C0007E07B689B6A43F010027B689A6201237E
:100F5C00FB75FB7D18461837BD4680BDFDF7E1FFDC
:100F6C00FE0E1FFF80B586B000AFF860B9607A60E6
:100F7C000023FB75FB681B68644A934204D0FB6832
:100F8C001B68634A934206D1604B5B6803F4702381
:100F9C00002B40F0B380FB6893F82430012B01D177
:100FAC000223AEE0FB68012283F82420F86800F0ED
:100FBC008DFA0346FB75FB7D002B40F09A80FB6895
:100FCC009B6A23F4706323F0010343F48072FB6883
:100FDC009A62FB681B684E4A934205D14B4B5B6887
:100FEC0003F47023002B15D1FB689B6A23F4801249
:100FFC00FB689A62FB681B685B6803F48063002BD8
:10100C0026D0FB689B6A23F4405343F48052FB6860
:10101C009A621DE0FB689B6A43F48012FB689A623B
:10102C00FB681B68394A934204D0FB681B68384A3A
:10103C0093420DD1354B5B6803F48063002B07D0D2
:10104C00FB689B6A23F4405343F48052FB689A621A
:10105C00FB689B6A03F48053002B06D0FB68DB6AA9
:10106C0023F00602FB68DA6202E0FB680022DA6217
:10107C00FB68002283F82420FB681B6A254A9A62CD
:10108C00FB681B6A244ADA62FB681B6A234A1A63F0
:10109C00FB681B686FF002021A60FB681B689A6899
:1010AC00FB681B6842F480729A60FB68186AFB68E4
:1010BC001B684C331946BA687B6800F075FDFB68F9
:1010CC001B689B6803F46023B3F5602F08D1FB68A1
:1010DC001B689A68FB681B6842F4A0029A600FE0D8
:1010EC00FB681B689A68FB681B6842F480129A6064
:1010FC0006E0FB68002283F8242001E00123FB7545
:10110C00FB7D18461837BD4680BD00BF002401404A
:10111C00002801400F1600088B160008A7160008BF
:10112C0080B582B000AF78607B681B685B6803F0A9
:10113C002003202B40D17B681B681B6803F0020343
:10114C00022B39D17B689B6A03F01003002B05D16D
:10115C007B689B6A43F400727B689A627B681B68AD
:10116C009B6803F46023B3F5602F1DD17B681B7B58
:10117C00002B19D17B681B685A687B681B6822F0AE
:10118C0020025A607B689B6A23F480727B689A62A7
:10119C007B689B6A03F48053002B05D17B689B6AA8
:1011AC0043F001027B689A627868FFF7EFFB7B687B
:1011BC001B686FF012021A607B681B685B6803F097
:1011CC008003802B4FD17B681B681B6803F00403E2
:1011DC00042B48D17B689B6A03F01003002B05D1CC
:1011EC007B689B6A43F400527B689A627B681B683D
:1011FC009B6803F4E043B3F5E04F12D07B681B68A7
:10120C005B6803F48063002B25D17B681B689B68AB
:10121C0003F46023B3F5602F1DD17B681B7B002B7F
:10122C0019D17B681B685A687B681B6822F08002A6
:10123C005A607B689B6A23F480527B689A627B6855
:10124C009B6A03F48073002B05D17B689B6A43F087
:10125C0001027B689A62786800F0E6FA7B681B688A
:10126C006FF00C021A607B681B685B6803F040032C
:10127C00402B14D17B681B681B6803F00103012B06
:10128C000DD17B689B6A43F480327B689A627868E4
:10129C0000F012F87B681B686FF001021A6000BF47
:1012AC000837BD4680BD80B483B000AF786000BF06
:1012BC000C37BD4680BC704780B483B000AF7860FB
:1012CC0000BF0C37BD4680BC704780B483B000AF04
:1012DC00786000BF0C37BD4680BC704780B485B0C9
:1012EC0000AF786039600023FB730023BB607B6820
:1012FC0093F82430012B01D10223DCE07B6801221E
:10130C0083F824203B685B68062B1CD87B681B6821
:10131C00596B3B685A6813469B001344053B1F22CC
:10132C0002FA03F3DB4319403B6818683B685A68C0
:10133C0013469B001344053B00FA03F27B681B68C1
:10134C000A435A633CE03B685B680C2B1CD87B68F7
:10135C001B68196B3B685A6813469B001344233B6C
:10136C001F2202FA03F3DB4319403B6818683B6801
:10137C005A6813469B001344233B00FA03F27B6824
:10138C001B680A431A631BE07B681B68D96A3B68BD
:10139C005A6813469B001344413B1F2202FA03F385
:1013AC00DB4319403B6818683B685A6813469B003E
:1013BC001344413B00FA03F27B681B680A43DA6270
:1013CC003B681B68092B1CD97B681B68D9683B6878
:1013DC001A6813465B0013441E3B072202FA03F300
:1013EC00DB4319403B6898683B681A6813465B00FE
:1013FC0013441E3B00FA03F27B681B680A43DA6055
:10140C0019E07B681B6819693B681A6813465B0016
:10141C001344072202FA03F3DB4319403B68986834
:10142C003B681A6813465B00134400FA03F27B68AE
:10143C001B680A431A613B681B68102B03D03B687E
:10144C001B68112B32D17B681B681D4A934225D136
:10145C007B681B689B6803F40003002B26D17B6818
:10146C001B689A687B681B6842F400029A603B68B0
:10147C001B68102B1AD1134B1B68134AA2FB0323B6
:10148C009A0C13469B0013445B00BB6002E0BB68E4
:10149C00013BBB60BB68002BF9D107E07B689B6A02
:1014AC0043F020027B689A620123FB737B68002265
:1014BC0083F82420FB7B18461437BD4680BC70474C
:1014CC00002401400000002083DE1B4380B584B063
:1014DC0000AF78600023FB600023BB607B681B6857
:1014EC009B6803F00103012B40D07B681B689A6852
:1014FC007B681B6842F001029A601F4B1B681F4AF5
:10150C00A2FB03239B0CBB6002E0BB68013BBB60EE
:10151C00BB68002BF9D1FFF743FCF8601FE0FFF725
:10152C003FFC0246FB68D31A022B18D97B681B6858
:10153C009B6803F00103012B11D07B689B6A43F07D
:10154C0010027B689A627B68DB6A43F001027B685D
:10155C00DA627B68002283F82420012307E07B6891
:10156C001B689B6803F00103012BD8D1002318469C
:10157C001037BD4680BD00BF0000002083DE1B433A
:10158C0080B584B000AF78600023FB607B681B687B
:10159C009B6803F00103012B2ED17B681B689A68B2
:1015AC007B681B6822F001029A60FFF7F9FBF86078
:1015BC001BE0FFF7F5FB0246FB68D31A022B14D98C
:1015CC007B681B689B6803F00103012B0DD17B68C2
:1015DC009B6A43F010027B689A627B68DB6A43F07B
:1015EC0001027B68DA62012307E07B681B689B6859
:1015FC0003F00103012BDCD0002318461037BD4645
:10160C0080BD80B584B000AF78607B685B6AFB609E
:10161C00FB689B6A03F05003002B27D1FB689B6A85
:10162C0043F40072FB689A62FB681B689B6803F4C6
:10163C006023B3F5602F15D1FB681B7B002B11D1F8
:10164C00FB689B6A23F48072FB689A62FB689B6A56
:10165C0003F48053002B05D1FB689B6A43F0010215
:10166C00FB689A62F868FFF791F904E0FB681B6A63
:10167C001B6B7868984700BF1037BD4680BD80B59E
:10168C0084B000AF78607B685B6AFB60F868FFF73A
:10169C000AFE00BF1037BD4680BD80B584B000AFD8
:1016AC0078607B685B6AFB60FB689B6A43F0400276
:1016BC00FB689A62FB68DB6A43F00402FB68DA623F
:1016CC00F868FFF702FE00BF1037BD4680BD000072
:1016DC0090B587B000AF78600023FB750023FB60EA
:1016EC007B6893F82430012B01D1022395E07B68B1
:1016FC00012283F824207868FFF742FF0346FB752C
:10170C00FB7D002B40F084807B689B6A23F488531C
:10171C0023F0020343F002027B689A62414B1C687F
:10172C00022001F04DFC0346B4FBF3F35B00FB60BD
:10173C0002E0FB68013BFB60FB68002BF9D1786889
:10174C00FFF7C4FE7B681B689A687B681B6842F0D5
:10175C0008029A60FFF724FB38611BE0FFF720FBBF
:10176C0002463B69D31A0A2B14D97B681B689B6809
:10177C0003F00803002B0DD07B689B6A23F0120347
:10178C0043F010027B689A627B68002283F8242065
:10179C00012342E07B681B689B6803F00803002B65
:1017AC00DCD17B681B689A687B681B6842F004027A
:1017BC009A60FFF7F5FA38611BE0FFF7F1FA024681
:1017CC003B69D31A0A2B14D97B681B689B6803F0FE
:1017DC000403002B0DD07B689B6A23F0120343F0AB
:1017EC0010027B689A627B68002283F82420012314
:1017FC0013E07B681B689B6803F00403002BDCD1AF
:10180C007B689B6A23F0030343F001027B689A62B6
:10181C007B68002283F82420FB7D18461C37BD46CC
:10182C0090BD00BF0000002080B483B000AF786092
:10183C0000BF0C37BD4680BC7047000080B485B03B
:10184C0000AF78607B6803F00703FB600C4BDB6830
:10185C00BB60BA684FF6FF031340BB60FB681A020B
:10186C00BB68134343F0BF6343F40033BB60044ACB
:10187C00BB68D36000BF1437BD4680BC704700BF47
:10188C0000ED00E080B400AF044BDB681B0A03F0F2
:10189C0007031846BD4680BC704700BF00ED00E052
:1018AC0080B483B000AF0346FB7197F90730002B6F
:1018BC000BDBFB7903F01F02064997F907305B0934
:1018CC00012000FA02F241F8232000BF0C37BD467C
:1018DC0080BC704700E100E080B483B000AF0346E9
:1018EC003960FB7197F90730002B0ADB3B68DAB2E1
:1018FC000C4997F907301201D2B20B4483F800233C
:10190C000AE03B68DAB20849FB7903F00F03043BA9
:10191C001201D2B20B441A7600BF0C37BD4680BC04
:10192C00704700BF00E100E000ED00E080B489B03A
:10193C0000AFF860B9607A60FB6803F00703FB61E5
:10194C00FB69C3F10703042B28BF0423BB61FB69AC
:10195C000433062B02D9FB69033B00E000237B61B7
:10196C004FF0FF32BB6902FA03F3DA43BB681A404B
:10197C007B699A404FF0FF317B6901FA03F3D9433D
:10198C007B680B40134318462437BD4680BC704718
:10199C0080B582B000AF78607B68013BB3F1807F8B
:1019AC0001D301230FE00A4A7B68013B53600F21EE
:1019BC004FF0FF30FFF790FF054B00229A60044B6D
:1019CC0007221A60002318460837BD4680BD00BFA9
:1019DC0010E000E080B582B000AF78607868FFF767
:1019EC002DFF00BF0837BD4680BD80B586B000AF67
:1019FC000346B9607A60FB7300237B61FFF742FFFB
:101A0C0078617A68B9687869FFF790FF024697F9B0
:101A1C000F3011461846FFF75FFF00BF1837BD4661
:101A2C0080BD80B582B000AF0346FB7197F90730DB
:101A3C001846FFF735FF00BF0837BD4680BD80B59F
:101A4C0082B000AF78607868FFF7A2FF03461846B3
:101A5C000837BD4680BD80B582B000AF78607B682A
:101A6C00002B01D101230EE07B685B79DBB2002BEC
:101A7C0005D17B6800221A717868FEF747FC7B68F9
:101A8C0001225A71002318460837BD4680BD80B428
:101A9C0087B000AFF860B9607A6000233B61FB68E7
:101AAC0002225A71FB681B689A68FB681B6842F03B
:101ABC0001029A6000237B610AE07B699B00BA6893
:101ACC001A44FB681B6812681A607B6901337B61DE
:101ADC007A697B689A42F0D3FB681B681B683B6190
:101AEC00FB6801225A713B6918461C37BD4680BC05
:101AFC007047000080B485B000AF78600023FB60B5
:101B0C007B68002B01D1012343E07B681B681A46DC
:101B1C00224B1344224AA2FB03231B099A007B6825
:101B2C001A647B681F4ADA637B68022283F82120DF
:101B3C007B681B681B68FB60FB6823F47F5323F0F6
:101B4C003003FB607B685A687B689B681A437B6830
:101B5C00DB681A437B681B691A437B685B691A4311
:101B6C007B689B691A437B68DB691343FA681343F0
:101B7C00FB607B681B68FA681A607B6800229A63BA
:101B8C007B68012283F821207B68002283F82020C7
:101B9C00002318461437BD4680BC7047F8FFFDBFC4
:101BAC00CDCCCCCC0000024080B586B000AFF86044
:101BBC00B9607A603B600023FB75FB6893F82030BA
:101BCC00012B01D102234AE0FB68012283F820207B
:101BDC00FB6893F82130012B3AD1FB68022283F881
:101BEC002120FB6800229A63FB681B681A68FB685B
:101BFC001B6822F001021A603B687A68B968F868C1
:101C0C0000F0E8F9FB68DB6A002B08D0FB681B6866
:101C1C001A68FB681B6842F00E021A600FE0FB6842
:101C2C001B681A68FB681B6822F004021A60FB68C8
:101C3C001B681A68FB681B6842F00A021A60FB6892
:101C4C001B681A68FB681B6842F001021A6005E009
:101C5C00FB68002283F820200223FB75FB7D1846CD
:101C6C001837BD4680BD80B485B000AF78600023C6
:101C7C00FB737B6893F82130022B08D07B6804221D
:101C8C009A637B68002283F82020012320E07B6884
:101C9C001B681A687B681B6822F00E021A607B684E
:101CAC001B681A687B681B6822F001021A607B684B
:101CBC001A6C7B68DB6B012101FA02F25A607B68BB
:101CCC00012283F821207B68002283F82020FB7BF3
:101CDC0018461437BD4680BC7047000080B584B0F0
:101CEC0000AF78600023FB737B6893F82130022BE4
:101CFC0005D07B6804229A630123FB7351E07B6857
:101D0C001B681A687B681B6822F00E021A607B68DD
:101D1C001B681A687B681B6822F001021A607B68DA
:101D2C001B68224A934229D07B681B68204A934245
:101D3C0022D07B681B681F4A93421AD07B681B68B1
:101D4C001D4A934212D07B681B681C4A93420AD0EE
:101D5C007B681B681A4A934202D14FF480130EE041
:101D6C004FF080730BE04FF4803308E04FF4805356
:101D7C0005E04FF4807302E0102300E00123114AC8
:101D8C0053607B68012283F821207B68002283F852
:101D9C0020207B685B6B002B03D07B685B6B7868C7
:101DAC009847FB7B18461037BD4680BD08000240A3
:101DBC001C00024030000240440002405800024027
:101DCC006C0002400000024080B584B000AF786027
:101DDC007B68DB6B1B68FB607B681B681B68BB60EC
:101DEC007B681B6C04229A40FB681340002B4FD07D
:101DFC00BB6803F00403002B4AD07B681B681B688C
:101E0C0003F02003002B07D17B681B681A687B68E2
:101E1C001B6822F004021A607B681B68664A9342B6
:101E2C0029D07B681B68654A934222D07B681B686B
:101E3C00634A93421AD07B681B68624A934212D061
:101E4C007B681B68604A93420AD07B681B685F4AB8
:101E5C00934202D14FF480030EE04FF080630BE00D
:101E6C004FF4802308E04FF4804305E04FF4806387
:101E7C0002E0402300E00423554A53607B68DB6A90
:101E8C00002B00F094807B68DB6A786898478EE0C2
:101E9C007B681B6C02229A40FB681340002B56D0C7
:101EAC00BB6803F00203002B51D07B681B681B68D6
:101EBC0003F02003002B0BD17B681B681A687B682E
:101ECC001B6822F00A021A607B68012283F8212029
:101EDC007B681B68384A934229D07B681B68374A59
:101EEC00934222D07B681B68354A93421AD07B6898
:101EFC001B68344A934212D07B681B68324A934267
:101F0C000AD07B681B68314A934202D14FF400130C
:101F1C000EE04FF000730BE04FF4003308E04FF489
:101F2C00005305E04FF4007302E0202300E002238D
:101F3C00274A53607B68002283F820207B689B6AC9
:101F4C00002B34D07B689B6A786898472FE07B68BD
:101F5C001B6C08229A40FB681340002B28D0BB68EE
:101F6C0003F00803002B23D07B681B681A687B687E
:101F7C001B6822F00E021A607B681A6C7B68DB6BA4
:101F8C00012101FA02F25A607B6801229A637B6894
:101F9C00012283F821207B68002283F820207B68B3
:101FAC001B6B002B04D07B681B6B7868984700BFB9
:101FBC0000BF1037BD4680BD080002401C00024027
:101FCC003000024044000240580002406C000240C5
:101FDC000000024080B485B000AFF860B9607A6050
:101FEC003B60FB681A6CFB68DB6B012101FA02F2A7
:101FFC005A60FB681B683A685A60FB685B68102B78
:10200C0008D1FB681B687A689A60FB681B68BA6821
:10201C00DA6007E0FB681B68BA689A60FB681B68AB
:10202C007A68DA6000BF1437BD4680BC7047000088
:10203C0080B48BB000AF7860396000237B620023E2
:10204C003B6248E101227B6A02FA03F3FB613B68C5
:10205C001B68FA691340BB61BA69FB699A4240F08C
:10206C0037813B685B68A34A93425ED0A14A934296
:10207C0075D8A14A934258D09F4A93426FD89F4A31
:10208C00934252D09D4A934269D89D4A93424CD078
:10209C009B4A934263D89B4A934246D0994A9342B7
:1020AC005DD8122B2AD8122B59D801A252F823F042
:1020BC0037210008112100082321000865210008A0
:1020CC006B2100086B2100086B2100086B210008B4
:1020DC006B2100086B2100086B2100086B210008A4
:1020EC006B2100086B2100086B2100086B21000894
:1020FC006B210008192100082D210008824A934207
:10210C0013D02CE03B68DB683B6229E03B68DB6862
:10211C0004333B6224E03B68DB6808333B621FE01E
:10212C003B68DB680C333B621AE03B689B68002B16
:10213C0002D104233B6213E03B689B68012B05D161
:10214C0008233B627B68FA691A6109E008233B6249
:10215C007B68FA695A6103E000233B6200E000BF30
:10216C00BB69FF2B01D87B6801E07B6804337B6182
:10217C00BB69FF2B02D87B6A9B0002E07B6A083BA1
:10218C009B003B617B691A680F213B6901FA03F3E1
:10219C00DB431A40396A3B6901FA03F31A437B6942
:1021AC001A603B685B6803F08053002B00F0908052
:1021BC00564B9B69554A43F001039361534B9B6902
:1021CC0003F00103BB60BB68514A7B6A9B08023376
:1021DC0052F82330FB607B6A03F003039B000F2251
:1021EC0002FA03F3DB43FA681340FB607B68494A4D
:1021FC0093420DD07B68484A934207D07B68474A8C
:10220C00934201D1022304E0032302E0012300E006
:10221C0000237A6A02F0030292009340FA68134397
:10222C00FB603B497B6A9B080233FA6841F8232028
:10223C003B685B6803F48033002B06D0384B1A687C
:10224C003749BB6913430B6006E0354B1A68BB6911
:10225C00DB43334913400B603B685B6803F400338A
:10226C00002B06D02E4B5A682D49BB6913434B608B
:10227C0006E02B4B5A68BB69DB43294913404B6082
:10228C003B685B6803F48013002B06D0244B9A68E0
:10229C002349BB6913438B6006E0214B9A68BB69E9
:1022AC00DB431F4913408B603B685B6803F40013EE
:1022BC00002B06D01A4BDA681949BB691343CB6063
:1022CC0006E0174BDA68BB69DB4315491340CB605A
:1022DC007B6A01337B623B681A687B6A22FA03F3E0
:1022EC00002B7FF4AFAE00BF00BF2C37BD4680BCC7
:1022FC00704700BF000032100000311000002210A7
:10230C0000002110000012100000111000100240FB
:10231C000000014000080140000C01400010014089
:10232C000004014080B483B000AF78600B467B8022
:10233C0013467B707B78002B03D07A887B681A61FC
:10234C0003E07B881A047B681A6100BF0C37BD461A
:10235C0080BC704780B582B000AF0346FB80084B51
:10236C005A69FB881340002B06D0054AFB88536141
:10237C00FB88184600F006F800BF0837BD4680BD44
:10238C000004014080B483B000AF0346FB8000BF63
:10239C000C37BD4680BC704780B584B000AF786008
:1023AC007B68002B01D101232BE17B6893F83D3036
:1023BC00DBB2002B06D17B68002283F83C207868C6
:1023CC00FEF764F87B68242283F83D207B681B6849
:1023DC001A687B681B6822F001021A607B681B6814
:1023EC001A687B681B6842F400421A607B681B68A1
:1023FC001A687B681B6822F400421A6000F0E4FC47
:10240C00F8607B685B68814A934207D8FB68804A16
:10241C00934294BF01230023DBB206E0FB687D4AA4
:10242C00934294BF01230023DBB2002B01D0012384
:10243C00E7E0FB68784AA2FB03239B0CBB607B683C
:10244C001B685B6823F03F017B681B68BA680A4312
:10245C005A607B681B681B6A23F03F017B685B68D2
:10246C006A4A934202D8BB68013309E0BB684FF457
:10247C00967202FB03F3694AA2FB03239B09013307
:10248C007A6812680B4313627B681B68DB6923F460
:10249C004F4222F0FF027B685B685C498B4219D883
:1024AC00FB68591E7B685B685B00B1FBF3F3591C3E
:1024BC0040F6FC730B40002B0AD0FB68591E7B685E
:1024CC005B685B00B1FBF3F30133C3F30B0351E027
:1024DC0004234FE07B689B68002B11D1FB68581ECE
:1024EC007B6859680B465B000B44B0FBF3F301337C
:1024FC00C3F30B03002B0CBF01230023DBB212E050
:10250C00FB68581E7B6859680B469B000B4499006E
:10251C000B44B0FBF3F30133C3F30B03002B0CBFE1
:10252C0001230023DBB2002B01D0012322E07B68C6
:10253C009B68002B0ED1FB68581E7B6859680B46B4
:10254C005B000B44B0FBF3F30133C3F30B0343F415
:10255C0000430FE0FB68581E7B6859680B469B00D4
:10256C000B4499000B44B0FBF3F30133C3F30B039F
:10257C0043F44043796809681343CB617B681B685B
:10258C001B6823F0C0017B68DA697B681B6A1A43FD
:10259C007B681B680A431A607B681B689B6823F482
:1025AC00034323F0FF037A6811697A68D2681143F8
:1025BC007A6812680B4393607B681B68DB6823F0B6
:1025CC00FF017B685A697B689B691A437B681B68AF
:1025DC000A43DA607B681B681A687B681B6842F0E8
:1025EC0001021A607B6800221A647B68202283F83F
:1025FC003D207B6800221A637B68002283F83E2012
:10260C00002318461037BD4680BD00BFA0860100D0
:10261C007F841E00FF083D0083DE1B43D34D6210F8
:10262C0080B586B000AF78607B68002B01D10123A8
:10263C006CE27B681B6803F00103002B00F08780C1
:10264C00924B5B6803F00C03042B0CD08F4B5B6834
:10265C0003F00C03082B12D18C4B5B6803F4803312
:10266C00B3F5803F0BD1894B1B6803F40033002B6F
:10267C006CD07B685B68002B68D1012346E27B68D9
:10268C005B68B3F5803F06D1804B1B687F4A43F4EF
:10269C00803313602EE07B685B68002B0CD17B4B86
:1026AC001B687A4A23F480331360784B1B68774A93
:1026BC0023F4802313601DE07B685B68B3F5A02FC7
:1026CC000CD1724B1B68714A43F4802313606F4B1F
:1026DC001B686E4A43F4803313600BE06B4B1B6832
:1026EC006A4A23F480331360684B1B68674A23F4EF
:1026FC00802313607B685B68002B13D0FEF750FBC4
:10270C00386108E0FEF74CFB02463B69D31A642B98
:10271C0001D90323FAE15D4B1B6803F40033002B52
:10272C00F0D014E0FEF73CFB386108E0FEF738FB14
:10273C0002463B69D31A642B01D90323E6E1534BC0
:10274C001B6803F40033002BF0D100E000BF7B6862
:10275C001B6803F00203002B63D04C4B5B6803F047
:10276C000C03002B0BD0494B5B6803F00C03082BBC
:10277C001CD1464B5B6803F48033002B16D1434BC2
:10278C001B6803F00203002B05D07B681B69012B2F
:10279C0001D00123BAE13D4B1B6823F0F8027B68A2
:1027AC005B69DB00394913430B603AE07B681B69BA
:1027BC00002B20D0364B01221A60FEF7F1FA38615B
:1027CC0008E0FEF7EDFA02463B69D31A022B01D959
:1027DC0003239BE12D4B1B6803F00203002BF0D06D
:1027EC002A4B1B6823F0F8027B685B69DB002749E6
:1027FC0013430B6015E0264B00221A60FEF7D0FA4B
:10280C00386108E0FEF7CCFA02463B69D31A022B7A
:10281C0001D903237AE11D4B1B6803F00203002B43
:10282C00F0D17B681B6803F00803002B3AD07B685F
:10283C009B69002B19D0174B01221A60FEF7B0FAD6
:10284C00386108E0FEF7ACFA02463B69D31A022B5A
:10285C0001D903235AE10D4B5B6A03F00203002BF1
:10286C00F0D0012000F0D8FA1CE00A4B00221A60CC
:10287C00FEF796FA38610FE0FEF792FA02463B69D2
:10288C00D31A022B08D9032340E100BF00100240E9
:10289C0000004242800442429E4B5B6A03F00203FA
:1028AC00002BE9D17B681B6803F00403002B00F0BC
:1028BC00A6800023FB75974BDB6903F08053002B3C
:1028CC000DD1944BDB69934A43F08053D361914B08
:1028DC00DB6903F08053BB60BB680123FB758E4B37
:1028EC001B6803F48073002B18D18B4B1B688A4A2E
:1028FC0043F480731360FEF753FA386108E0FEF777
:10290C004FFA02463B69D31A642B01D90323FDE02D
:10291C00814B1B6803F48073002BF0D07B68DB6861
:10292C00012B06D17B4B1B6A7A4A43F001031362DD
:10293C002DE07B68DB68002B0CD1764B1B6A754A4B
:10294C0023F001031362734B1B6A724A23F00403D6
:10295C0013621CE07B68DB68052B0CD16D4B1B6A8A
:10296C006C4A43F0040313626A4B1B6A694A43F0D6
:10297C00010313620BE0674B1B6A664A23F00103E9
:10298C001362644B1B6A634A23F0040313627B6873
:10299C00DB68002B15D0FEF703FA38610AE0FEF76E
:1029AC00FFF902463B69D31A41F28832934201D9AE
:1029BC000323ABE0574B1B6A03F00203002BEED052
:1029CC0014E0FEF7EDF938610AE0FEF7E9F902468A
:1029DC003B69D31A41F28832934201D9032395E023
:1029EC004C4B1B6A03F00203002BEED1FB7D012B39
:1029FC0005D1484BDB69474A23F08053D3617B6890
:102A0C00DB69002B00F08180424B5B6803F00C0308
:102A1C00082B61D07B68DB69022B46D13F4B00222F
:102A2C001A60FEF7BDF9386108E0FEF7B9F9024605
:102A3C003B69D31A022B01D9032367E0354B1B6882
:102A4C0003F00073002BF0D17B681B6AB3F5803F59
:102A5C0008D1304B5B6823F400327B689B682D49AE
:102A6C0013434B602B4B5B6823F474127B68196A1D
:102A7C007B685B6A0B43274913434B60274B01224E
:102A8C001A60FEF78DF9386108E0FEF789F9024605
:102A9C003B69D31A022B01D9032337E01D4B1B686A
:102AAC0003F00073002BF0D02FE01C4B00221A60B7
:102ABC00FEF776F9386108E0FEF772F902463B69D9
:102ACC00D31A022B01D9032320E0124B1B6803F00D
:102ADC000073002BF0D118E07B68DB69012B01D16E
:102AEC00012313E00B4B5B68FB60FB6803F4803243
:102AFC007B681B6A9A4206D1FB6803F470127B68F0
:102B0C005B6A9A4201D0012300E000231846183773
:102B1C00BD4680BD00100240007000406000424283
:102B2C0080B584B000AF786039607B68002B01D130
:102B3C000123D0E06A4B1B6803F007033A689A4202
:102B4C0010D9674B1B6823F0070265493B68134398
:102B5C000B60634B1B6803F007033A689A4201D081
:102B6C000123B8E07B681B6803F00203002B20D024
:102B7C007B681B6803F00403002B05D0594B5B6882
:102B8C00584A43F4E06353607B681B6803F0080306
:102B9C00002B05D0534B5B68524A43F4605353608F
:102BAC00504B5B6823F0F0027B689B684D491343E4
:102BBC004B607B681B6803F00103002B40D07B68E3
:102BCC005B68012B07D1474B1B6803F40033002BC8
:102BDC0015D101237FE07B685B68022B07D1414B49
:102BEC001B6803F00073002B09D1012373E03D4BEC
:102BFC001B6803F00203002B01D101236BE0394B5E
:102C0C005B6823F003027B685B68364913434B60B7
:102C1C00FEF7C6F8F8600AE0FEF7C2F80246FB6859
:102C2C00D31A41F28832934201D9032353E02D4B3E
:102C3C005B6803F00C027B685B689B009A42EBD1EB
:102C4C00274B1B6803F007033A689A4210D2244BB7
:102C5C001B6823F0070222493B6813430B60204B8F
:102C6C001B6803F007033A689A4201D0012332E053
:102C7C007B681B6803F00403002B08D0194B5B68BE
:102C8C0023F4E0627B68DB68164913434B607B6876
:102C9C001B6803F00803002B09D0124B5B6823F46C
:102CAC0060527B681B69DB000E4913434B6000F0DC
:102CBC0021F802460B4B5B681B0903F00F030A4912
:102CCC00CB5C22FA03F3094A1360094B1B681846C4
:102CDC00FEF724F8002318461037BD4680BD00BF10
:102CEC0000200240001002405C430008000000205D
:102CFC000400002090B48AB000AF2A4B3C1D0FCBCF
:102D0C0084E80F0040F201233B800023FB61002389
:102D1C00BB6100237B6200237B6100233B62224B5F
:102D2C005B68FB61FB6903F00C03042B02D0082BDE
:102D3C0003D02DE01D4B3B622DE0FB699B0C03F097
:102D4C000F0307F12802134413F8243C7B61FB6941
:102D5C0003F48033002B13D0134B5B685B0C03F034
:102D6C00010307F12802134413F8283CBB617B696B
:102D7C000E4A02FB03F2BB69B2FBF3F37B6204E085
:102D8C007B690B4A02FB03F37B627B6A3B6202E0CA
:102D9C00064B3B6200BF3B6A18462837BD4690BCC9
:102DAC00704700BF3C4300080010024000127A003C
:102DBC0000093D0080B400AF024B1B681846BD46AD
:102DCC0080BC70470000002080B500AFFFF7F2FF19
:102DDC000246054B5B681B0A03F007030349CB5CF7
:102DEC0022FA03F3184680BD001002406C43000821
:102DFC0080B500AFFFF7DEFF0246054B5B68DB0AD0
:102E0C0003F007030349CB5C22FA03F3184680BD99
:102E1C00001002406C43000880B485B000AF7860AD
:102E2C000A4B1B680A4AA2FB03235B0A7A6802FB63
:102E3C0003F3FB6000BFFB685A1EFA60002BF9D14C
:102E4C0000BF00BF1437BD4680BC70470000002097
:102E5C00D34D621080B586B000AF786000233B6123
:102E6C000023FB607B681B6803F00103002B7DD003
:102E7C000023FB754F4BDB6903F08053002B0DD106
:102E8C004C4BDB694B4A43F08053D361494BDB69B4
:102E9C0003F08053BB60BB680123FB75464B1B687A
:102EAC0003F48073002B18D1434B1B68424A43F444
:102EBC0080731360FDF774FF386108E0FDF770FF55
:102ECC0002463B69D31A642B01D903236DE03A4BBC
:102EDC001B6803F48073002BF0D0364B1B6A03F491
:102EEC004073FB60FB68002B2ED07B685B6803F49F
:102EFC004073FA689A4227D02E4B1B6A23F4407316
:102F0C00FB602E4B01221A602C4B00221A60294ABE
:102F1C00FB681362FB6803F00103002B14D0FDF770
:102F2C003FFF38610AE0FDF73BFF02463B69D31ACD
:102F3C0041F28832934201D9032336E01D4B1B6AC0
:102F4C0003F00203002BEED01A4B1B6A23F44072E1
:102F5C007B685B68174913430B62FB7D012B05D122
:102F6C00144BDB69134A23F08053D3617B681B68D5
:102F7C0003F00203002B08D00E4B5B6823F4404295
:102F8C007B689B680B4913434B607B681B6803F0A1
:102F9C001003002B08D0074B5B6823F480027B687E
:102FAC00DB68044913434B60002318461837BD46B1
:102FBC0080BD00BF0010024000700040400442423F
:102FCC0090B58DB000AF78605A4B07F10C040FCB65
:102FDC0084E80F0040F201233B8100237B62002335
:102FEC00FB6200233B620023FB610023BB627B6816
:102FFC00102B0AD07B68102B00F291807B68012B80
:10300C004CD07B68022B7CD089E04B4B5B68FB611E
:10301C00494B1B6803F08073002B00F08280FB6926
:10302C009B0C03F00F0307F13002134413F8243CFC
:10303C003B62FB6903F48033002B18D03E4B5B687A
:10304C005B0C03F0010307F13002134413F8283C26
:10305C007B62FB6903F48033002B0DD0374A7B6A0B
:10306C00B2FBF3F23B6A02FB03F3FB6204E03B6A44
:10307C00334A02FB03F3FB622F4B5B6803F48003C0
:10308C00B3F5800F02D1FB6ABB624AE0FB6A5B00BE
:10309C002C4AA2FB03235B08BB6242E0264B1B6A53
:1030AC00FB61FB6903F44073B3F5807F08D1FB69C6
:1030BC0003F00203002B03D04FF40043BB621FE06C
:1030CC00FB6903F44073B3F5007F09D11A4B5B6ABB
:1030DC0003F00203002B03D049F64043BB620FE020
:1030EC00FB6903F44073B3F5407F1CD1124B1B6892
:1030FC0003F40033002B16D04FF22443BB6212E0D2
:10310C0011E0FFF775FE02460B4B5B689B0B03F05F
:10311C00030301335B00B2FBF3F3BB6204E000BFBB
:10312C0002E000BF00E000BFBB6A18463437BD4662
:10313C0090BD00BF4C4300080010024000127A0002
:10314C0000093D00ABAAAAAA80B582B000AF786096
:10315C007B68002B01D1012341E07B6893F83D3063
:10316C00DBB2002B06D17B68002283F83C20786808
:10317C00FDF7F4FC7B68022283F83D207B681A681B
:10318C007B6804331946104600F06AFA7B6801220A
:10319C0083F846207B68012283F83E207B6801225D
:1031AC0083F83F207B68012283F840207B68012252
:1031BC0083F841207B68012283F842207B6801223E
:1031CC0083F843207B68012283F844207B6801222A
:1031DC0083F845207B68012283F83D2000231846A4
:1031EC000837BD4680BD000080B485B000AF786064
:1031FC007B6893F83D30DBB2012B01D0012335E025
:10320C007B68022283F83D207B681B68DA687B6848
:10321C001B6842F00102DA607B681B68164A934215
:10322C0009D07B681B68B3F1804F04D07B681B68A6
:10323C00124A934211D17B681B689B6803F0070309
:10324C00FB60FB68062B10D07B681B681A687B68D8
:10325C001B6842F001021A6007E07B681B681A6861
:10326C007B681B6842F001021A6000231846143771
:10327C00BD4680BC704700BF002C014000040040DC
:10328C0080B582B000AF78607B681B681B6903F067
:10329C000203022B22D17B681B68DB6803F002035C
:1032AC00022B1BD17B681B686FF002021A617B68D2
:1032BC0001221A777B681B689B6903F00303002BC0
:1032CC0003D0786800F0B1F905E0786800F0A4F953
:1032DC00786800F0B3F97B6800221A777B681B686A
:1032EC001B6903F00403042B22D17B681B68DB6889
:1032FC0003F00403042B1BD17B681B686FF00402E2
:10330C001A617B6802221A777B681B689B6903F43D
:10331C004073002B03D0786800F087F905E07868DB
:10332C0000F07AF9786800F089F97B6800221A7746
:10333C007B681B681B6903F00803082B22D17B6890
:10334C001B68DB6803F00803082B1BD17B681B6828
:10335C006FF008021A617B6804221A777B681B687D
:10336C00DB6903F00303002B03D0786800F05DF9F0
:10337C0005E0786800F050F9786800F05FF97B6838
:10338C0000221A777B681B681B6903F01003102B53
:10339C0022D17B681B68DB6803F01003102B1BD158
:1033AC007B681B686FF010021A617B6808221A7721
:1033BC007B681B68DB6903F44073002B03D07868CF
:1033CC0000F033F905E0786800F026F9786800F031
:1033DC0035F97B6800221A777B681B681B6903F040
:1033EC000103012B0ED17B681B68DB6803F0010322
:1033FC00012B07D17B681B686FF001021A6178689A
:10340C00FDF7AEFA7B681B681B6903F08003802B09
:10341C000ED17B681B68DB6803F08003802B07D11F
:10342C007B681B686FF080021A61786800F067FA9D
:10343C007B681B681B6903F04003402B0ED17B6833
:10344C001B68DB6803F04003402B07D17B681B68CB
:10345C006FF040021A61786800F0F9F87B681B681D
:10346C001B6903F02003202B0ED17B681B68DB68E3
:10347C0003F02003202B07D17B681B686FF0200220
:10348C001A61786800F032FA00BF0837BD4680BD7B
:10349C0080B584B000AF786039607B6893F83C30BD
:1034AC00012B01D10223B3E07B68012283F83C207D
:1034BC007B68022283F83D207B681B689B68FB605D
:1034CC00FB6823F07703FB60FB6823F47F43FB600E
:1034DC007B681B68FA689A603B681B68B3F5005FF1
:1034EC003ED0B3F5005F00F28780B3F5805F00F04B
:1034FC008580B3F5805F7FD8702B1AD0702B7BD86A
:10350C00602B50D0602B77D8502B3CD0502B73D8DD
:10351C00402B58D0402B6FD8302B64D0302B6BD82D
:10352C00202B60D0202B67D8002B5CD0102B5AD0CE
:10353C0062E07B6818683B6899683B685A683B682E
:10354C00DB6800F05CF97B681B689B68FB60FB68C0
:10355C0043F07703FB607B681B68FA689A604EE067
:10356C007B6818683B6899683B685A683B68DB68FD
:10357C0000F045F97B681B689A687B681B6842F40D
:10358C0080429A603BE07B6818683B6859683B68EE
:10359C00DB681A4600F0BCF87B681B6850211846A3
:1035AC0000F013F92BE07B6818683B6859683B689E
:1035BC00DB681A4600F0DAF87B681B686021184655
:1035CC0000F003F91BE07B6818683B6859683B689E
:1035DC00DB681A4600F09CF87B681B684021184693
:1035EC0000F0F3F80BE07B681A683B681B6819461F
:1035FC00104600F0EAF802E000BF00E000BF7B6874
:10360C00012283F83D207B68002283F83C200023B4
:10361C0018461037BD4680BD80B483B000AF7860CB
:10362C0000BF0C37BD4680BC704780B483B000AF80
:10363C00786000BF0C37BD4680BC704780B483B047
:10364C0000AF786000BF0C37BD4680BC704780B4BB
:10365C0083B000AF786000BF0C37BD4680BC7047AC
:10366C0080B485B000AF786039607B681B68FB6004
:10367C007B68254A934207D07B68B3F1804F03D017
:10368C007B68224A934208D1FB6823F07003FB60ED
:10369C003B685B68FA681343FB607B681A4A934289
:1036AC0007D07B68B3F1804F03D07B68174A9342F5
:1036BC0008D1FB6823F44073FB603B68DB68FA6855
:1036CC001343FB60FB6823F080023B685B69134388
:1036DC00FB607B68FA681A603B689A687B68DA6200
:1036EC003B681A687B689A627B68074A934203D1ED
:1036FC003B681A697B681A637B6801225A6100BFB8
:10370C001437BD4680BC7047002C014000040040BB
:10371C0080B487B000AFF860B9607A60FB681B6A50
:10372C007B61FB681B6A23F00102FB681A62FB6871
:10373C009B693B613B6923F0F0033B617B681B0198
:10374C003A6913433B617B6923F00A037B617A6915
:10375C00BB6813437B61FB683A699A61FB687A69C1
:10376C001A6200BF1C37BD4680BC704780B487B05E
:10377C0000AFF860B9607A60FB681B6A23F0100236
:10378C00FB681A62FB689B697B61FB681B6A3B6187
:10379C007B6923F470437B617B681B037A69134359
:1037AC007B613B6923F0A0033B61BB681B013A6959
:1037BC0013433B61FB687A699A61FB683A691A6248
:1037CC0000BF1C37BD4680BC704780B485B000AFCD
:1037DC00786039607B689B68FB60FB6823F0700342
:1037EC00FB603A68FB68134343F00703FB607B689C
:1037FC00FA689A6000BF1437BD4680BC704780B42D
:10380C0087B000AFF860B9607A603B60FB689B687A
:10381C007B617B6923F47F437B613B681A027B6885
:10382C001A43BB6813437A6913437B61FB687A695B
:10383C009A6000BF1C37BD4680BC704780B485B011
:10384C0000AF786039607B6893F83C30012B01D174
:10385C00022341E07B68012283F83C207B68022232
:10386C0083F83D207B681B685B68FB607B681B688A
:10387C009B68BB60FB6823F07003FB603B681B68B4
:10388C00FA681343FB607B681B68FA685A607B68B4
:10389C001B68144A934209D07B681B68B3F1804FB4
:1038AC0004D07B681B68104A93420CD1BB6823F090
:1038BC008003BB603B685B68BA681343BB607B6882
:1038CC001B68BA689A607B68012283F83D207B688C
:1038DC00002283F83C20002318461437BD4680BCD8
:1038EC00704700BF002C01400004004080B483B03E
:1038FC0000AF786000BF0C37BD4680BC704780B409
:10390C0083B000AF786000BF0C37BD4680BC7047F9
:10391C0080B582B000AF78607B68002B01D10123A9
:10392C003FE07B6893F83D30DBB2002B06D17B681F
:10393C00002283F83C207868FDF760F97B6824222C
:10394C0083F83D207B681B68DA687B681B6822F46F
:10395C000052DA60786800F025FC7B681B681A69F5
:10396C007B681B6822F490421A617B681B685A6959
:10397C007B681B6822F02A025A617B681B68DA6834
:10398C007B681B6842F40052DA607B6800221A6480
:10399C007B68202283F83D207B68202283F83E2020
:1039AC00002318460837BD4680BD80B58AB002AFEB
:1039BC00F860B9603B601346FB8000237B61FB68B9
:1039CC0093F83D30DBB2202B7CD1BB68002B02D0AE
:1039DC00FB88002B01D1012375E0FB6893F83C3088
:1039EC00012B01D102236EE0FB68012283F83C20FD
:1039FC00FB6800221A64FB68212283F83D20FDF746
:103A0C00CFF97861FB68FA889A84FB68FA88DA84C3
:103A1C00FB689B68B3F5805F08D1FB681B69002BC2
:103A2C0004D10023FB61BB68BB6103E0BB68FB6195
:103A3C000023BB61FB68002283F83C202AE03B6832
:103A4C0000937B6900228021F86800F011FA03468C
:103A5C00002B01D0032336E0FB69002B0BD1BB6993
:103A6C001B881A46FB681B68C2F308025A60BB69C4
:103A7C000233BB6107E0FB691A78FB681B685A606C
:103A8C00FB690133FB61FB68DB8C9BB2013B9AB297
:103A9C00FB68DA84FB68DB8C9BB2002BCFD13B68D4
:103AAC0000937B6900224021F86800F0E1F903469D
:103ABC00002B01D0032306E0FB68202283F83D2075
:103ACC00002300E0022318462037BD4680BD0000CD
:103ADC0080B58AB000AF78607B681B681B687B621E
:103AEC007B681B68DB683B627B681B685B69FB61FE
:103AFC000023BB6100237B617B6A03F00F03BB6176
:103B0C00BB69002B0DD17B6A03F02003002B08D07E
:103B1C003B6A03F02003002B03D0786800F099FA7D
:103B2C007BE1BB69002B00F0B180FB6903F0010362
:103B3C00002B05D13B6A03F49073002B00F0A68098
:103B4C007B6A03F00103002B0AD03B6A03F48073F9
:103B5C00002B05D07B681B6C43F001027B681A6458
:103B6C007B6A03F00403002B0AD0FB6903F001030A
:103B7C00002B05D07B681B6C43F002027B681A6437
:103B8C007B6A03F00203002B0AD0FB6903F00103EC
:103B9C00002B05D07B681B6C43F004027B681A6415
:103BAC007B6A03F00803002B0FD03B6A03F0200361
:103BBC00002B04D1FB6903F00103002B05D07B68BB
:103BCC001B6C43F008027B681A647B681B6C002B2F
:103BDC0000F01E817B6A03F02003002B07D03B6AA8
:103BEC0003F02003002B02D0786800F032FA7B68D7
:103BFC001B685B6903F04003002B14BF01230023F7
:103C0C00DBB27B617B681B6C03F00803002B02D1D9
:103C1C007B69002B31D0786800F074F97B681B68E5
:103C2C005B6903F04003002B23D07B681B685A6947
:103C3C007B681B6822F040025A617B689B6B002BEF
:103C4C0013D07B689B6B764A5A637B689B6B1846D8
:103C5C00FEF744F80346002B16D07B689B6B5B6B1E
:103C6C007A68926B104698470EE0786800F0ECF892
:103C7C000AE0786800F0E8F806E0786800F0E4F80C
:103C8C007B6800221A64C3E000BFC1E07B681B6B39
:103C9C00012B40F0A1807B6A03F01003002B00F095
:103CAC009B803B6A03F01003002B00F095800023EF
:103CBC00FB607B681B681B68FB607B681B685B6830
:103CCC00FB60FB687B681B685B6903F04003002B9F
:103CDC004ED07B689B6B1B685B683B823B8A002BDE
:103CEC0000F098807B689B8D3A8A9A4280F0928093
:103CFC007B683A8ADA857B689B6B9B69202B2BD07F
:103D0C007B681B68DA687B681B6822F48072DA6057
:103D1C007B681B685A697B681B6822F001025A6138
:103D2C007B681B685A697B681B6822F040025A61E9
:103D3C007B68202283F83E207B6800221A637B6814
:103D4C001B68DA687B681B6822F01002DA607B68FB
:103D5C009B6B1846FDF787FF7B689A8D7B68DB8D24
:103D6C009BB2D31A9BB21946786800F076F851E0F2
:103D7C007B689A8D7B68DB8D9BB2D31A7B827B68C8
:103D8C00DB8D9BB2002B47D07B8A002B44D07B6809
:103D9C001B68DA687B681B6822F49072DA607B68B7
:103DAC001B685A697B681B6822F001025A617B68A8
:103DBC00202283F83E207B6800221A637B681B68F4
:103DCC00DA687B681B6822F01002DA607B8A19467D
:103DDC00786800F042F81FE07B6A03F08003002B48
:103DEC0008D03B6A03F08003002B03D0786800F006
:103DFC00C9F812E07B6A03F04003002B0DD03B6A3C
:103E0C0003F04003002B08D0786800F00AF904E0B6
:103E1C0000BF02E000BF00E000BF2837BD4680BDF8
:103E2C00693F000880B483B000AF786000BF0C37E6
:103E3C00BD4680BC704780B483B000AF786000BFD3
:103E4C000C37BD4680BC704780B483B000AF78603F
:103E5C0000BF0C37BD4680BC704780B483B000AF48
:103E6C0078600B467B8000BF0C37BD4680BC70472A
:103E7C0080B584B000AFF860B9603B601346FB714D
:103E8C002CE0BB69B3F1FF3F28D0BB69002B07D0F6
:103E9C00FCF786FF02463B68D31ABA699A421DD2D8
:103EAC00FB681B68DA68FB681B6822F4D072DA6066
:103EBC00FB681B685A69FB681B6822F001025A6197
:103ECC00FB68202283F83D20FB68202283F83E20EB
:103EDC00FB68002283F83C2003230FE0FB681B687F
:103EEC001A68BB681340BA689A420CBF01230023BE
:103EFC00DBB21A46FB799A42C3D00023184610371E
:103F0C00BD4680BD80B483B000AF78607B681B6811
:103F1C00DA687B681B6822F49072DA607B681B6835
:103F2C005A697B681B6822F001025A617B681B6B23
:103F3C00012B07D17B681B68DA687B681B6822F051
:103F4C001002DA607B68202283F83E207B68002216
:103F5C001A6300BF0C37BD4680BC704780B584B077
:103F6C0000AF78607B685B6AFB60FB680022DA85D7
:103F7C00FB680022DA84F868FFF766FF00BF103791
:103F8C00BD4680BD80B485B000AF78607B6893F887
:103F9C003D30DBB2212B3ED17B689B68B3F5805F53
:103FAC0014D17B681B69002B10D17B681B6AFB60EA
:103FBC00FB681B881A467B681B68C2F308025A60B0
:103FCC007B681B6A9A1C7B681A6208E07B681B6A18
:103FDC00591C7A6811621A787B681B685A607B6876
:103FEC00DB8C9BB2013B9BB27A681946D184002BC7
:103FFC000FD17B681B68DA687B681B6822F0800233
:10400C00DA607B681B68DA687B681B6842F04002E8
:10401C00DA60002300E0022318461437BD4680BC4A
:10402C00704780B582B000AF78607B681B68DA6837
:10403C007B681B6822F04002DA607B68202283F8E0
:10404C003D207868FFF7EEFE002318460837BD4682
:10405C0080BD80B586B000AF78607B6893F83E3049
:10406C00DBB2222B40F099807B689B68B3F5805FB4
:10407C0017D17B681B69002B13D100237B617B68F4
:10408C009B6A3B617B681B685B689BB2C3F308034C
:10409C009AB23B691A807B689B6A9A1C7B689A620D
:1040AC0026E07B689B6A7B6100233B617B689B6895
:1040BC00B3F5805F07D07B689B68002B0AD17B68C7
:1040CC001B69002B06D17B681B685B68DAB27B69C5
:1040DC001A7008E07B681B685B68DBB203F07F0337
:1040EC00DAB27B691A707B689B6A5A1C7B689A628D
:1040FC007B68DB8D9BB2013B9BB27A681946D185FC
:10410C00002B48D17B681B68DA687B681B6822F03F
:10411C002002DA607B681B68DA687B681B6822F413
:10412C008072DA607B681B685A697B681B6822F0B6
:10413C0001025A617B68202283F83E207B681B6B4E
:10414C00012B23D17B6800221A637B681B68DA6819
:10415C007B681B6822F01002DA607B681B681B68A6
:10416C0003F01003102B0AD10023FB607B681B6843
:10417C001B68FB607B681B685B68FB60FB687B688B
:10418C009B8D19467868FFF768FE02E07868FFF7A8
:10419C0052FE002302E0002300E0022318461837E9
:1041AC00BD4680BD80B584B000AF78607B681B686D
:1041BC001B6923F440517B68DA687B681B680A43EF
:1041CC001A617B689A687B681B691A437B685B6918
:1041DC001343BB607B681B68DB6823F4B05323F08C
:1041EC000C037A681268B9680B43D3607B681B6850
:1041FC005B6923F440717B689A697B681B680A438E
:10420C005A617B681B682C4A934203D1FEF7F0FD80
:10421C00F86002E0FEF7D8FDF860FA6813469B00E0
:10422C0013449A001A447B685B689B00B2FBF3F35F
:10423C00224AA2FB03235B091901FA6813469B006F
:10424C0013449A001A447B685B689B00B2FBF3F240
:10425C001A4BA3FB02035B09642000FB03F3D31A84
:10426C001B013233154AA2FB03235B0903F0F00355
:10427C001944FA6813469B0013449A001A447B684D
:10428C005B689B00B2FBF3F20C4BA3FB02035B09D4
:10429C00642000FB03F3D31A1B013233074AA2FB41
:1042AC0003235B0903F00F027B681B680A449A60C6
:1042BC0000BF1037BD4680BD003801401F85EB5153
:1042CC0070B500260C4D0D4C641BA410A64209D1F0
:1042DC0000F022F800260A4D0A4C641BA410A642DA
:1042EC0005D170BD55F8043B98470136EEE755F8FB
:1042FC00043B98470136F2E7744300087443000806
:10430C00744300087843000803460244934200D1EA
:10431C00704703F8011BF9E7F8B500BFF8BC08BCFF
:10432C009E467047F8B500BFF8BC08BC9E46704767
:10433C0002030405060708090A0B0C0D0E0F1010DA
:10434C0002030405060708090A0B0C0D0E0F1010CA
:10435C000000000000000000010203040607080929
:08436C0000000000010203043F
:04437400310100080B
:044378000D0100082B
:0C437C000024F40010000000010000000C
:0400000508000CB132
:00000001FF
